:400000000080002011000000890000008900000008B5044B1A6803F53F5302331A6000F035F800BFFA46004010B5054C237833B9044B13B10448AFF300800123237010BD38
:400040001081FF1F0000000084040000084B10B51BB108480849AFF300800848036803B910BD074B002BFBD0BDE81040184700BF00000000840400001481FF1F0881FF1F21
:400080000000000062B6FEE7FEE700BF08B5104E104D16E029686B68AC68002204E051F8040B43F8040B0432A242F8D1E868002203E0002143F8041B04328242F9D1103555
:4000C000013E002EE6D100F0A3F9FFF7DBFFFEE701000000EC04000008B5124A124B1A60124A136843F40073136000230AE0032B03D80F4A52F8231000E00E490E4A42F811
:40010000231001332F2BF2D90C4B1A780C4B1A70094A0C4B1A6000F0C9F800220A4B1A6008BD00BF0004FA050CED00E014ED00E000000000890000000080FF1FBC760040C9
:400140000481FF1F08ED00E00081FF1FFEE700BFF0B40022174611E050F82760F3B226F0FF0608E001EB420511F812406D78A5550132013BDBB2002BF4D10137222FEBD993
:40018000F0BC7047064B1B78DBB203F00701054A11701B09013213704422034B1A707047CF0100496E5800407658004038B528222C4B1A8018232C4A1370A2222B490A8066
:4001C00002310B7002310A8002310B7002310A8002310B7002310A80254A13700622254B1A705222A3F580731A70234B1B78DBB2224A137040F21972214B1A8042F251223A
:40020000023B1A80002419250CE01E4B1B7803F0010343EA440404F003044FF4F07000F0E7F8013D0DB1032CEFD115B90320FFF78DFF154A4FF4807313800723137000236E
:4002400012490B7048200231087013700532137002220F4B1A700F4A137843F01F03137038BD00BF80400040824000408440004092400040004300400F010049A1460040C5
:400280002242004025420040044000400640004001400040A243004008B50A46002100F0E8F808BD08B500F0D9F808BD10B572B661223A4B1A70FFF779FF394A137843F00F
:4002C0000403137000240CE0364963001A1952000A4423445B00C8589188FFF7DDFF0134E4B2062CF0D900240FE02E49A3001A1952000A4452F82C0F23445B000B445168CD
:400300009A8EFFF7CFFF0134E4B2012CEDD94FF090402549FFF71CFF244A137843F0020313701032137843F002031370204C237843F040032370A2F58632513A137843F0A1
:40034000100313701B481C490822FFF7ABFF1B481B490A22FFF7A6FF1A481B490A22FFF7A1FF1A481A490A22FFF79CFF19481A490A22FFF797FF194819490A22FFF792FFCB
:40038000184A137843F008031370FFF7FBFE164821460E22FFF786FF10BD00BF00480040E8460040880400008C00004803500140A0430040025100404C0F0048C051004010
:4003C000540F0048F0510040600F0048105100406C0F004820510040780F004830510040840F004822430040B0430040000000000230800803D000BF01380046FCD1704773
:40040000EFF3108072B6704780F31088704700BF0E4B70B51E460E4C0025E41AA410A54204D056F8253098470135F8E700F04CF8084B094C1E46E41AA4100025A54204D0B3
:4004400056F8253098470135F8E770BDD4040000D4040000D4040000DC04000010B5431E0A44914204D011F8014B03F8014FF8E710BD03460244934202D003F8011BFAE7BB
:400480007047000000000000C8490040190040510040300080000140800F00140140000800400140000A004C01400002105001401000000000000140BC0E0048800000507F
:4004C00001403C0F00481000F8B500BFF8BC08BC9E4670474D000000D9000000F8B500BFF8BC08BC9E46704729000000000500000881FF1F080000002000000000000000F7
:4005000000000000000000000000000000000000000000000000000000000000000000000000000000000000000000000000000000000000000000000000000000000000BB
:40054000000000000000000000000000000000000000000000000000000000000000000000000000000000000000000000000000000000000000000000000000000000007B
:40058000000000000000000000000000000000000000000000000000000000000000000000000000000000000000000000000000000000000000000000000000000000003B
:4005C00000000000000000000000000000000000000000000000000000000000000000000000000000000000000000000000000000000000000000000000000000000000FB
:020000040003F7
:0200000480007A
:400000000652004009640040066500401200014038010140680201404A03014055040140540501406E0601405E0701406508014055090140590A0140460B0140090D014061
:4000400050140140481501406C160140521701406A180140561901406F1A0140531B01400A42014007430140024501400146014001470140074801401D4901400D4C014062
:400080000A4D01400650014001510140143019121C60600261087901807281388472867287388838890F8A388B7284728738880F890F8A0F8B0F8B028F01A201AA01AB04AE
:4000C000AF02B103B201B704BE04BF01D418D804D904DB04DC10DD20DF0100040240030A0A650B800D040F201080120113241604170119411A051B961F0421202289244028
:4001000025402A602B142C042F013145321038243A023B803F504062411048404B204C014D8052105A025F016580670869547090710472027324C00FC20FC45FCA3ECC0F42
:40014000CE3FD00FD204D681D830017002B3030F040C057F080409780B070C080D0310F3120C130B1401153018FF19011C4F1D4F1E901F302003244C251026A3284229020B
:400180002D202E40300F3140327C33043503368C373839083AAA3F015608580459045B045C115D905F018028811482928349890A8B118C148D018EA28F069402953F964C66
:4001C0009D3FA120A43FA83FAC01B030B107B20EB318B401B520B6C0B740BE40C012C103C206C405C50CC6E0C809C9FFCAFFCBFFCC62CDA0CEF0CF41D00CD608D804D9042D
:40020000DA04DB04DC30DD90DF01E640E702E910EA30EB10ED10EE10EF1200400240058506080A100EA51154140416A2184419401A701C101E8521102240235026212722CF
:400240002A012C042D802E08308031083440350536523B523C103D083EA540044104438045404602481049404A0851205B805C806240640182408BD0915C94069520966056
:4002800097739A109C269E449F01A040A140A288A380A708AA21B120C0F9C2F4C4F7CA71CCFACEFDD00ED20CD618D818E40101200208074F09100A020DFF0E0111CF1201C4
:4002C000133015F0170F19BC1A081B43210F2204253029052A022D0A3002313C3204338034083570360137033B023E513F0456025712580459045B045C205D205F01812043
:400300008510880289308D7F9108953897459D4F9F30A538A743AB46AE01AF08B001B202B370B53EB701B980BB28BE04C001C704C9FFCA07CBFFCC40CD20CEF0CF05D0085B
:40034000D608D804D904DA04DB04DC22DD91DF01E040E1A8E240E32000A002800520080209211248140119421A041B081D081F0220082101220523812715280129102B5015
:400380002C102F0630103201331434013784386039013B083C403D013E113F24454057245A085C105F40640466106702680869447010721173048080810889408A048D20C9
:4003C0008E019402972398419A409B229C269D849E8D9F01A050A124A2A9A480A612A708A908AE10B110B480C04BC20AC48ACA7FCCD7CEFFD010D632D830E204E812EA0178
:40040000000102260301041405020649081F09021301140A16511B042304281F2D023007310232183460350437013E103F50404541034206440245C047E0482249FF4AFF86
:400440004BFF4C624DA04EF04F41500C56025713580459045A045B045C115D115F016640670269106A306B106D106E106F1286108A108B019003920C9302940A96049A0885
:400480009B029C039E04A220A403A604AA05B00FB220B303B610BA02BB02BE40BF04C045C102C206C403C50CC70EC811C9FFCAFFCBFFCC62CDA0CEF0CF41D00CD418D80417
:4004C000D904DA04DB04DC24DD12DF01E640E702E910EA30EB10ED10EE10EF120028050106900704082009080A810E10101011201240171018821AA01D211E30204021049A
:40050000240426822C022E0230013110372238203D103E043F014008410544404524481449404D204E024F015204560258025E02600462806C026D106E046F147584760829
:4005400080B0834085608601870688108D088F2091469442974898419A109B229D949E8CA00CA114A221A324A540A612A740A820A911AF10B102B410B701C076C22FC44E74
:40058000CA90CCA5CEE4D0E7D23CD681D80CE208E604E810EA01EE07091C0A080BA30C030E440F8011A1130E180A1A541C531E0C230824532604271C29A12B162C202D406E
:4005C0002E452F833040318033603430350F360F371A382039083A803BA03E013F0140354104450B460C470E481549FF4AFF4BFF4EF04F44500C5418580459045A045B043F
:400600005C415D045F0166C06A406B02870D89808C018F2099079B389D729F0CA402A907AB58AF70B103B201B380B402B568B73CB902BBA0BE14BF05C004C604C9FFCA076E
:40064000CBFFCC40CD20CEF0CF05D008D401D804D904DA04DB04DD40DF01E040E1A8E240E3200080048005100C200E02101011081602170819041A041C441D101E022181E8
:40068000223425502604274229A02D402E102F60318032103702380839A03D203F804101450847024D404E024F04500C514055045640574058225A045B405E016020620841
:4006C0006540661082048320841286488B028D108E0292019380970499409A109C04A202A558A720A820A901AA2EAF08B140B508C0C1C2C0C4A4CAFCCC8CCE3ED0C1D21015
:40070000D68FD830E040E220E610E8C00301040906100A03101013011470160C18141C6C1E112620285C2A02321F3460350138203E103F104002460449FF4A074BFF4C409A
:400740004D204EF04F0550085418580459045A045B045C045D345F01604061A862406320804F81708290830F8442851088FF89308C01910392B3944C954F96A3973098F36D
:4007800099789A0C9B079C089D01A003A120A404A502A80CA97FAE40AF0BB140B27CB303B40FB538B68CB704B980BAA8BF01D602D710D804D904DB04DC33DD30DF01001027
:4007C0000320040105A809480B840C810E28102011201510176A18101A041C031E2820042402262827802C852D282F08330135803614370238023C023D103E08420448202E
:40080000534059015F80600462806C086D086E4074807608772881048A908C108E409201980199809B43A408A808AF01B001C0F6C2FFC4F6CAF0CCF1CEE1D004D611D80C1F
:40084000E080E210E420E640EC20834089808B029201B201E020E480E620EC80004201200403053008F309100A0C0CFF0D02104C110112A31640170B19031AB31C011D7862
:400880001F0720082170230F2404254F2730280C297F2C4F2E90308C31403304340F3503367C373839083AAA3F014003454049FF4A074BFF4C404D204EF04F0550085602D4
:4008C0005710580459045A045B045C445D435F01604061A8624063208024821188018A068C128E21983FA43FAC08B030B208B407D608D804DB04DC04DD90DF01000801A0DE
:4009000002400440051006400AA00B0A0E041020120113121580170819221BA81C481D181F0721102288238029022A012B2831183240338238283A42402048404A105B809C
:400940005C105F4069806A046B087034720273128020844086108B408C109220952099809A409D20A404A508A688A70AAD10AF41C0DFC24FC4AFCA07CC0FCE0FD002D63820
:40098000E032E280E408E694E810EA050014013103460708081C096C0A020B030C090E1014201603181019311B0E2010220C234C2713280C2A11321F334A350F36203730C5
:4009C00039803B283E403F404043410245E046CB480E49FF4AFF4BFF4EF04F44500C5608580459045A045B045C115D915F0166C06A406B028610870188018A068E208F0242
:400A000090849241970298429A819F01A220A4CFA8CFAC08B030B207B4C0B502B608B701BB08BE01BF50C063C105C202C404C60EC70CC814C9FFCAFFCBFFCC62CDA0CEF0CA
:400A4000CF41D00CD418D804D904DA04DB04DC32DD44DF01E640E702E910EA30EB10ED10EE10EF12001803020683070808010A040E100F081008114412401501171018707B
:400A800019501A041E101F4020242180255027182C102E022F203288371038883D233F084048410844104501471049A04A014D025044542056805B015C8060046180664020
:400AC0008028828183188502874088108D10914492209420974098819A019D509E40A008A101A324A540A84AAA20B440B501B601C0D7C26AC45FCAC0CC2ACEEAD0E7D20CD6
:400B0000D611D81CE005E408011C0302051406230861090C0A160B11112013031461160E19101B0C1C5C1D101E03220824802D092E1C2F103060321A33203480360F371FEA
:400B400038023A883E113F044004454049FF4A074BFF4C404D204EF04F0550085401580459045A045B045C225D125F01604061A862406320841B866089148D108E40912034
:400B80009303990C9B119C509D1C9E239F02A018A221A41BA620A804A910AA29AB0CAD09AF10B001B11FB320B478B606B880BA20BE01BF04C026C103C5E0C6BCC80EC9FFA4
:400BC000CAFFCBFFCEF0CF44D00CD401D804D904DA04DB04DF01E6C0EA40EB02000401800510061009800E111088122014211501180419A01A401D021E192020220126084A
:400C0000270129A22A022C012F0131803221351036803701382039803D083E11400441044502484849014D014E8050905380561059055A605C405D025E085F2079087A206A
:400C4000804083288430860288048C209040918092089480952099049C049DA09F08A008A180A220A460B404B508B611C065C2A1C4BECA1CCCBDCEECD086D204D6FFE00849
:400C8000E490EA10EC10EE400071020E0788082C09200A430B450D130FC4147115131606174C19031A0C1B04258A264027542A532E082F80320F330F34303530364037C85F
:400CC000382039203A083B883E5040324105450C46EB480D49FF4AFF4BFF4EF04F44500C5401580459045A045B045C335D335F0166C06A406B028120821084408509860B7C
:400D0000871088278A18910C9311942795109608970C98069A099C149E299F03A114A91CAB02AC80AD10B060B11FB280B41EB520B601B802BA20BE44BF10C063C102C50CF3
:400D4000C7EBC831C9FFCAFFCBFFCEF0CF44D00CD401D804D904DA04DB04DC32DD22DF01E6C0EA40EB0200120531061009080A400B840C040E110F0810211110178018102C
:400D800019841B281D111F4520022148220823062788280129042C812F08303031083608378239903B043C013E023F04400841084404461048214D204F08508051105504BC
:400DC0005602581059805A085B015C215E405F0883208409851089108B058C208F049219952097029A109D10A504AA08B610B780C07AC2E6C487CABACCD6CECED066D22826
:400E0000D6FFE010E280E690E810EA0103403E1050408040A580B580C010CE20D420E280834096109B409E08A580B608E4808820E604A420A4205B10840496109E08A58034
:400E4000D480E440000806080D80130214805940631070027720888289408F2293109C809E08A404A580AA10AB10AF10B480C090C280C430D480D840DC80DE20EAB00C2069
:400E800012401320170458047B087C108404A420C201C40ED602DE038A408F0C9A409B04A708AB20B410E008E609E808101F110112141A1E1B011C0F03C00000422000009F
:400EC0000000B30B001040004C01A3000178000703300000FF030000F34F0C3008000000047F00000C70000F4F0290007C408C3800030F040080AA000000000132060100D0
:400F000004C0E0000AFFFFFF62A0F0410C00000000000213040404040003000100000000000040020010301000101012000000000000000000000000000000001F011400A6
:400F4000000000000F0117011B00000000060600000000000B0004383B000B0000000000010000010100010000000000400080444400400000000000300000F0C000000029
:400F80000000000012008912720012000000000000000000000000000000000000000000000000000000000000000000000000000000000000000000000000000000000000
:400FC00000000000000000000000000000000000000000000000000000000000000000000000000000000000000000000000000000000000000000000000000000000000F1
:4010000000000000000000000000000000000000000000000000000000000000000000000000000000000000000000000000000000000000000000000000000000000000B0
:401040000000000000000000000000000000000000000000000000000000000000000000000000000000000000000000000000000000000000000000000000000000000070
:401080000000000000000000000000000000000000000000000000000000000000000000000000000000000000000000000000000000000000000000000000000000000030
:0200000490006A
:0400000000004005B7
:0200000490105A
:04000000BC90ACAF55
:0200000490303A
:0200000055DFCA
:0200000490402A
:4000000000000000000000000000000000000000000000000000000000000000000000000000000000000000000000000000000000000000000000000000000000000000C0
:400040000000000000000000000000000000000000000000000000000000000000000000000000000000000000000000000000000000000000000000000000000000000080
:400080000000000000000000000000000000000000000000000000000000000000000000000000000000000000000000000000000000000000000000000000000000000040
:4000C0000000000000000000000000000000000000000000000000000000000000000000000000000000000000000000000000000000000000000000000000000000000000
:0200000490501A
:0C00000000012E16106900012E1C66483D
:00000001FF