:400000000080002011000000C1130000C113000008B5044B1A6803F53F5302331A6001F0D1F900BFFA46004010B5054C237833B9044B13B10448AFF300800123237010BD04
:400040003881FF1F00000000A43C0000084B10B51BB108480849AFF300800848036803B910BD074B002BFBD0BDE81040184700BF00000000A43C00003C81FF1F0881FF1F21
:4000800000000000F8B562B66A4B04261E6002251D6001F029FC01F067FF01F0A9FE0020014602F013FA02F087F8642001F052FB002002F0EFF8604F3870012002F0EAF897
:4000C0005E4B187001243C701D70284602F0E2F85B4B1870032002F0DDF85A4B1870304602F0D8F8584B187006E0201D02F0D2F8554B18550134E4B2534B1B78DBB2A34235
:40010000F3D2222002F0C6F8504B1870012407E004F1220002F0BEF84C4B18550134E4B24A4B1B78DBB2A342F2D2402002F0B2F8474B1870012407E004F1400002F0AAF802
:40014000434B18550134E4B2414B1B78DBB2A342F2D2312002F09EF83E4B1870012407E004F1310002F096F83A4B18550134E4B2384B1B78DBB2A342F2D25E2002F08AF8CD
:400180002D4C84F858005F2002F084F884F85900602002F07FF884F85A008E2002F07AF8264C84F858008F2002F074F884F85900902002F06FF884F85A00612002F06AF883
:4001C000254B1870012407E004F1610002F062F8214B18550134E4B21F4B1B78DBB2A342F2D2702002F056F81C4B1870012407E004F1700002F04EF8184B18550134E4B27F
:40020000164B1B78DBB2A342F2D27F2002F042F8134B1870012407E004F17F0002F03AF80F4B18550134E4B20D4B1B78DBB2A342F2D2F8BD00E100E01883FF1F7881FF1F46
:40024000EB81FF1F4682FF1FF082FF1FDC81FF1FEC81FF1FC082FF1F4882FF1F3082FF1FD882FF1F10B5012002F028F800242FE01A4B1B781A4A1278DBB2934212D100F0A2
:40028000EBFB78B100F00F01144A1170C0F30713134C23701078002101F092FF2078012101F08EFF0D4B187800F0B4FB08B9002400E001240A4B187800F0ACFB08B1013453
:4002C000E4B2022C04D00023044A1370044A1370022CCDD1002001F0F1FF10BD1883FF1F7881FF1F38B505460C4600F093FB0B2844D8DFE800F00843434343430B100606AB
:400300002F39022038BD04F00C0038BD04F00C0040F0010038BD284600F0CEFB90B11A4B1B78DBB2AB4202D1184BD87601E0184BD876962001F00EFA45F0100001F0A4FEAC
:40034000022038BD962001F005FA142001F09CFE002038BD642001F0FDF9284600F01EFC01280DD1042038BD642001F0F3F9284600F014FC012805D1042038BD002038BDED
:40038000002038BD002038BD1883FF1F9483FF1F5C82FF1F30B583B005460C4601F0FEFE28427ED1002001F0EDFE002001F0DEFE052C72D8DFE804F003101D712A4E3A4814
:4003C00001F030FD1D2001F021FD562001F01EFD312001F01BFD60E0344801F023FD1D2001F014FD562001F011FD312001F00EFD53E02F4801F016FD1D2001F007FD562093
:4004000001F004FD312001F001FD46E0012D10D128490878284BDA7E013A0A4492F8581003F109020092DA1C123300F0FBFC012433E022490878224BDA7E013A0A4492F870
:40044000581003F109020092DA1C123300F0EAFC012422E0022D10D116490878164BDA7E013A0A4492F8581003F109020092DA1C123300F0D7FC01240FE010490878104B51
:40048000DA7E013A0A4492F8581003F109020092DA1C123300F0C6FC012401F07FFE0328FBD1204603B030BDA83C0000D83C00000C3D00001883FF1F9483FF1F7881FF1F15
:4004C0005C82FF1F30B591B002F03EF820B102F035F808B102F062F902F030F8002800F05F8202F02FFA002800F05A82684602F041FA0446002800F05382012001F0DEFE9A
:4005000002F02CFA0028FBD0631E10AA1A4412F8402C2A2A40F03A829DF80020303A172A00F23482DFE812F018001C003300480072009C00C600F00007011E01320232028E
:400540003202320232023202320235014C0163017A01BA01E4010E02B44802F091F915E29DF80230A3F13602D2B2012A0BD803F00F03AF4D2B70AD4802F082F92878022110
:4005800001F01EFE02E2AB4802F07AF9FEE19DF80220A2F13003DBB2012B09D8A64B1A701878032101F00CFEA04802F069F9EDE1A04802F065F9E9E1212C23D8E21ED2B2FA
:4005C0009E490A70022208E0511E10A8104410F8405C9A4845540132D2B29342F4DC002506E0964B585D291D01F0EAFD0135EDB2924B1B78DBB2AB42F3D2904B187802F0F8
:400600008DF9C3E18B4802F03BF9BFE1122C23D8E21ED2B28A490A70022208E0511E10A8104410F8405C864845540132D2B29342F4DC002507E0824B585D05F1220101F067
:40064000BFFD0135EDB27E4B1B78DBB2AB42F2D2764802F015F999E1764802F011F995E1122C23D8E21ED2B276490A70022208E0511E10A8104410F8405C72484554013240
:40068000D2B29342F4DC002507E06E4B585D05F1310101F095FD0135EDB26A4B1B78DBB2AB42F2D2614802F0EBF86FE1614802F0E7F86BE1212C23D8E21ED2B262490A700C
:4006C000022208E0511E10A8104410F8405C5E4845540132D2B29342F4DC002507E05A4B585D05F1400101F06BFD0135EDB2564B1B78DBB2AB42F2D24C4802F0C1F845E192
:400700004C4802F0BDF841E19DF80220A2F13103DBB2022B0BD84D4B83F8582093F858005E2101F04DFD414802F0AAF82EE1414802F0A6F82AE19DF80220A2F13103DBB2BE
:40074000022B0BD8414B83F8592093F859005F2101F036FD354802F093F817E1354802F08FF813E19DF80220A2F13103DBB2022B0BD8364B83F85A2093F85A00602101F09D
:400780001FFD2A4802F07CF800E12A4802F078F8FCE09DF80220A2F13103DBB2022B0BD82B4B83F8582093F858008E2101F008FD1E4802F065F8E9E01E4802F061F8E5E0B4
:4007C0009DF80220A2F13103DBB2022B0BD8204B83F8592093F859008F2101F0F1FC134802F04EF8D2E0134802F04AF8CEE09DF80220A2F13103DBB2022B0BD8144B83F896
:400800005A2093F85A00902101F0DAFC074802F037F8BBE0074802F033F8B7E0122C39D8E21ED2B20B490A7002221EE0283D0000EB81FF1F2C3D00004682FF1FF082FF1F42
:40084000DC81FF1FC082FF1FEC81FF1F1883FF1F7881FF1F4882FF1F511E10A8104410F8405C504845540132D2B29342F4DC002507E04C4B585D05F1610101F0A1FC01353A
:40088000EDB2494B1B78DBB2AB42F2D2474801F0F7FF7BE0464801F0F3FF77E0122C23D8E21ED2B243490A70022208E0511E10A8104410F8405C3F4845540132D2B2934201
:4008C000F4DC002507E03B4B585D05F1700101F077FC0135EDB2344B1B78DBB2AB42F2D2324801F0CDFF51E0314801F0C9FF4DE0122C23D8E21ED2B22F490A70022208E06F
:40090000511E10A8104410F8405C2B4845540132D2B29342F4DC002507E0274B585D05F17F0101F04DFC0135EDB21F4B1B78DBB2AB42F2D21D4801F0A3FF27E01C4801F0E9
:400940009FFF23E09DF80250592D1CD89DF80300232818D89DF80410312914D89DF80520122A10D8154B1D705870154B19705A709DF806209A7000F0C9FC00F0F3FC0B48C1
:4009800001F07EFF02E00A4801F07AFF402C07D101F0E4FF0028FBD00020014601F04AFF11B030BD4882FF1FDC81FF1F283D00002C3D00003082FF1FD882FF1FD881FF1FE1
:4009C000EC82FF1F38B5FFF75DFBFFF74BFC00242546002001F072FC0C4B18782946FFF781FC01460220FFF7D5FC0546012001F065FC074B18782146FFF774FC0146012017
:400A0000FFF7C8FC0446FFF75DFDE2E71883FF1F7881FF1F10B5044601F014FB204601F033FB642000F096FE01F0DEFA01280FD101F0A8FA00F00F03A34205D1C0F307143D
:400A400001F000FB204610BD01F0FCFA002010BD01F0F8FA002010BD70B5052000F07AFE0020FFF7D7FF08B9FF2600E00026FF25012410E0052000F06DFE2046FFF7CAFF4B
:400A800038B1FF2D02D0FF2E03D101E0254600E026460134E4B20F2CECD9FF2D07D0FF2E07D005F00F0040EA0610C0B270BD002070BD002070BD00BF10B588B00446364AE1
:400AC0006B461068516803C3127A1A7044F0200001F0DAFA642000F03DFE01F085FA0346002856D001F04EFA44F0D004A04245D101F0A8FA00240AE008AB234413F8200C3E
:400B000001F0C2FA052000F025FE0134E4B2082CF2D9C82000F01EFE01F066FA12280AD8002336E001F02EFA08AB234403F8140C0134E4B200E00024122CF3D901F082FAD8
:400B40009DF80C30BA2B1BD19DF81D308D2B19D19DF81E308A2B17D19DF81830B02B15D19DF81A30B22B13D0B32B03D0B12B03D101230EE003230CE000230AE0002308E0F5
:400B8000002306E0002304E0002302E0002300E00223184608B010BD643D000010B5044601F050FA44F0400001F06EFA4FF4967000F0D0FD964B1B78DBB2072B00F089802B
:400BC00001F012FA212840F08480924B1B78DBB2FF2B40F00C818F4B9B78DBB2F82B40F008818C4B93F82030DBB2F02B40F00381894B1B78DBB2A34235D1864B5B7A03F0BB
:400C00000F030133854AD37600230AE003F10C028049895C814A1A4401F00F01D1700133DBB2032BF2D900230AE003F111027949895C7A4A1A4401F00F0191740133DBB2D0
:400C4000052BF2D900230AE003F118027149895C724A1A4401F00F0151720133DBB2052BF2D9012010BD6B4B5B7A03F00F0301336B4AD37600230AE003F10C026549895CD3
:400C8000674A1A4401F00F01D1700133DBB2032BF2D900230AE003F111025E49895C604A1A4401F00F0191740133DBB2052BF2D900230AE003F118025649895C584A1A4420
:400CC00001F00F0151720133DBB2052BF2D9012010BD4F4B1B78DBB2072B40F08E8001F083F9272840F08B804A4B1B78DBB2FF2B40F08780474B9B78DBB2F82B40F08380C7
:400D0000444B93F82630DBB2F02B7ED1424B1B78DBB2A34235D13F4B5B7A03F00F0301333E4AD37600230AE003F10C023949895C3A4A1A4401F00F01D1700133DBB2052BC0
:400D4000F2D900230AE003F113023249895C334A1A4401F00F0191740133DBB2072BF2D900230AE003F11C022A49895C2B4A1A4401F00F0151720133DBB2072BF2D90120A6
:400D800010BD244B5B7A03F00F030133244AD37600230AE003F10C021E49895C204A1A4401F00F01D1700133DBB2052BF2D900230AE003F113021749895C194A1A4401F004
:400DC0000F0191740133DBB2072BF2D900230AE003F11C020F49895C114A1A4401F00F0151720133DBB2072BF2D9012010BD002010BD002010BD002010BD002010BD0020C7
:400E000010BD002010BD002010BD002010BD00BFEB81FF1F0C85FF1F1883FF1F9483FF1F5C82FF1F2DE9F8430746894690461D46089EA94800F0F6FF002404E0202000F0E2
:400E4000E5FF0134E4B2A54B1B78C3F11F0303EBD373B4EB630FF1DD012405E09F4B185D00F0D4FF0134E4B29C4B1B78DBB2A342F4D20A2000F0CAFF994B1B7813F0FF0F43
:400E800006D122E0202000F0C1FF0134E4B200E00024934B1B78C3F11B0303EBD373B4EB630FEFDD8F4800F0BDFF012405E08C4B185D00F0ABFF0134E4B2894B1B78DBB214
:400EC000A342F4D20A2000F0A1FF874B1B7813F0FF0F06D125E0202000F098FF0134E4B200E00024804B1B78C3F11B0303EBD373B4EB630FEFDD7D4800F094FF012405E012
:400F0000794B185D00F082FF0134E4B2764B1B78DBB2A342F4D20A2000F078FF0A2000F075FF002404E0202000F070FF0134E4B26F4B1B78C3F11F0303EBD373B4EB630FB7
:400F4000F1DD012405E06A4B185D00F05FFF0134E4B2674B1B78DBB2A342F4D20A2000F055FF0A2000F052FF0A2000F04FFF614800F058FF00F09CF901282AD15E4C2078BD
:400F8000C0F30110303000F041FF207800F00F00303000F03BFF2F2000F038FF6078C0F300103030C0B200F031FF607800F00F00303000F02BFF2F2000F028FFA0780009E1
:400FC000303000F023FFA07800F00F00303000F01DFF0A2000F01AFF484800F023FF00F039F901281AD1464C6078C0F30110303000F00CFF607800F00F00303000F006FF3C
:401000003A2000F003FF20780009303000F0FEFE207800F00F00303000F0F8FE0A2000F0F5FE0A2000F0F2FE364800F0FBFE364CA4FB0734E40804F1300000F0E7FE04EBEB
:40104000840464003C1B04F13000C0B200F0DEFE0A2000F0DBFE2D4800F0E4FEB9F1310F0ED106E02A4B185D00F0D0FE0134E4B200E00124264B1B78DBB2A342F2D222E02D
:40108000B9F1320F0ED106E0224B185D00F0BEFE0134E4B200E001241E4B1B78DBB2A342F2D210E0B9F1330F0DD106E01A4B185D00F0ACFE0134E4B200E00124164B1B7818
:4010C000DBB2A342F2D20A2000F0A0FE134800F0A9FE002304242EE0703D0000F082FF1FDC81FF1F8C3D0000C082FF1F943D0000EC81FF1F9C3D0000EC82FF1FA43D000034
:40110000D881FF1FAC3D0000CDCCCCCCB83D00004882FF1F3082FF1FD882FF1FC43D000018F8040000B923B13030C0B200F06EFE0123013CE4B2002CF2D198F80000303053
:40114000C0B200F063FE3D4B1B78DBB2312B02D1302000F05BFE0A2000F058FE384800F061FE0022062417E02F192B5D3BB932B9032C0FD1302000F049FE01220AE0022C3A
:4011800002D12C2000F042FE38783030C0B200F03DFE0122013CE4B2002CE5D128783030C0B200F033FE0A2000F030FE254800F039FE0023062409E0305D00B923B130303C
:4011C000C0B200F023FE0123013CE4B2002CF3D11D4B1B78DBB2062B04D130783030C0B200F014FE0A2000F011FE0A2000F00EFE0A2000F00BFE154800F014FE0A2000F090
:4012000005FE134800F00EFE0A2000F0FFFD0A2000F0FCFD0A2000F0F9FD0A2000F0F6FD0A2000F0F3FD1D2000F0F0FD562000F0EDFD312000F0EAFDBDE8F8834682FF1F6C
:40124000D43D0000E43D0000EB81FF1FF43D0000103E000038B501241DE000F073FD6820002100F0BBFCD0B9204600F013FDC0B900F0F4FC0A2000F06DFA6820012100F011
:40128000ADFC80B9651E00F031FD084B585500F0E5FC0134E4B2022CDFD9012038BD002038BD002038BD002038BD00BFD881FF1F38B504241DE000F045FD6820002100F0C1
:4012C0008DFCD0B9204600F0E5FCC0B900F0C6FC0A2000F03FFA6820012100F07FFC80B9251F00F003FD084B585500F0B7FC0134E4B2062CDFD9012038BD002038BD002002
:4013000038BD002038BD00BFEC82FF1F10B582B001238DF80430124B1A788DF805205B788DF8063000F00EFD6820002100F056FC58B1002011E002AB234413F8040C00F03E
:40134000A9FC48B90134E4B200E00024022CF2D900F084FC012000E0002002B010BD00BFD881FF1F10B582B004238DF80430134B1A788DF805205A788DF806209B788DF833
:40138000073000F0DFFC6820002100F027FC58B1002011E002AB234413F8040C00F07AFC48B90134E4B200E00024032CF2D900F055FC012000E0002002B010BDEC82FF1F89
:4013C000FEE700BF08B5104E104D16E029686B68AC68002204E051F8040B43F8040B0432A242F8D1E868002203E0002143F8041B04328242F9D11035013E002EE6D102F0E9
:4014000017FCFFF7DFFAFEE7010000003440000008B5124A124B1A60124A136843F40073136000230AE0032B03D80F4A52F8231000E00E490E4A42F8231001332F2BF2D94B
:401440000C4B1A780C4B1A70094A0C4B1A6000F0D1F800220A4B1A6008BD00BF0004FA050CED00E014ED00E000000000C11300000080FF1FBC7600400481FF1F08ED00E037
:401480000081FF1FFEE700BFF0B40022174611E050F82760F3B226F0FF0608E001EB420511F812406D78A5550132013BDBB2002BF4D10137282FEBD9F0BC7047064B1B786B
:4014C000DBB203F00701054A11701B09013213704422034B1A707047CF0100496E5800407658004038B54722304B1A80182330490B7002310A802F4A137040F25A32043152
:401500000A8002310B7002310A802B4A137040F29A51023211800232137040F2B66102321180023213700622244B1A705222A3F580731A70224B1B78DBB2224A137040F604
:401540002132214B1A8041F25122023B1A80002419250CE01D4B1B7803F0010343EA440404F003044FF4F07000F0E2F8013D0DB1032CEFD115B90320FFF784FF144A4FF482
:401580008073138007231370002312490B7048200231087013700532137002220E4B1A700E4A137843F03F03137038BD8040004082400040864000408E400040004300403F
:4015C0000F010049A14600402242004025420040044000400640004001400040A243004008B50A46002102F054FB08BD08B502F045FB08BD10B572B6394C61232370FFF709
:4016000071FF01232370374A137843F00403137000240CE0344963001A1952000A4423445B00C8589188FFF7DBFF0134E4B2062CF0D900240BE02C49A3001A1952000A446C
:40164000D06A116B1022FFF7D1FF0134E4B2002CF1D04FF090402549FFF716FF244A137843F0020313701032137843F002031370204C237843F040032370A2F58632513A56
:40168000137843F0100313701B481C490822FFF7ADFF1B481B490A22FFF7A8FF1A481B490A22FFF7A3FF1A481A490A22FFF79EFF19481A490A22FFF799FF194819490A2237
:4016C000FFF794FF184A137843F008031370FFF7F5FE164821460E22FFF788FF10BD00BF00480040E8460040283E0000A400004803500140A04300400251004038100048AA
:40170000C051004040100048F05100404C10004810510040581000482051004064100048305100407010004822430040B04300400230800803D000BF01380046FCD170472D
:40174000EFF3108072B6704780F31088704700BF01BE704710B5044605E0084B1868FFF7E7FFA4F50044B4F5004FF6D8034B586800FB04F0FFF7DCFF10BD00BF0C81FF1FD6
:4017800008B5034B1B7A03FB00F0FFF7D1FF08BD0C81FF1F70B504460E46074B1D681F2802D90020FFF7D4FF04F01F04103455F8240045F8246070BD08ED00E038B50446FA
:4017C0000D46072902D90020FFF7C2FF1F2C02D90020FFF7BDFF04F01F0000F1604000F564406D01EDB2057038BD00BF134B1B78DBB20360124A127843EA02230360114A72
:40180000127843EA024303600F4A127843EA026303600E4B1B78DBB243600D4A127843EA022343600B4A127843EA024343600A4A127843EA02634360704700BF03010049B5
:4018400004010049EC460040020100490101004900010049050100490601004910B50222114B1A7081220E3B1A70082202331A702A2211331A70002401331C704FF4004277
:401880000A4B1A600F200721FFF798FF0F200849FFF780FF1022074B1A70074B1C70074B1C70074B1C7010BDD649004080E100E011190000F783FF1FFA83FF1FFC83FF1F71
:4018C000F883FF1F08B5FFF73BFF064A137843F0040313701032137843F004031370FFF733FF08BDA543004008B5074B1B7823B9FFF7B4FF0122044B1A70FFF7E3FF4FF4ED
:401900000042024B1A6008BD5481FF1F00E100E038B5A44B1C78E4B2A34B1B7813F0400F00F0378114F0010F00F01B819E4B1B78453B052B00F21281DFE813F00600820001
:40194000100110010600DE0004F0DF0504F00A04082C42D1944B1B78DBB2452B35D1934B1B7813F0FF0F10D0914B1B681B78DBB2904A137004228B4B1A7001228E4B1A7081
:401980004622894B1A702C46EBE08C4B1B7813F0020F0DD08A4A137843F00A0313706022814B1A704FF40042864B1A602C46D8E0854A137843F0100313701022834B1A7028
:4019C0000422023B1A702C46CBE00022754B1A704A22754B1A702C46C3E00A2C2BD1784A137843F0A0031370744B1B7813F0020F14D06D4B1B7813F0080F01D0092300E042
:401A00000A236F4A11780B4313706022664B1A704FF400426B4B1A602C46A2E06A4A137843F0100313701022684B1A700422023B1A702C4695E00020FFF78AFE2C4690E035
:401A400014F0020F35D15C4B1B78584A1278DBB2934210D2584A1378DBB255490968CB5CDBB254490B7004214E4B197013780133DBB2137075E0514B1B7813F0020F0CD082
:401A80004F4A137843F00A0313706022464B1A704FF400424B4B1A6063E04B4A137843F0100313701022494B1A700422023B1A7057E0424B1B7813F0020F0CD0404A137848
:401AC00043F09A0313706022374B1A704FF400423C4B1A6045E03C4A137843F01003137010223A4B1A700422023B1A70344A137843F09003137034E0354A1378DBB23549D7
:401B000008682C490978C9B2C15413780133DBB213701378304A1278DBB2934203D21022204B1A701DE0254B1B7813F0020F0CD0234A137843F00903137060221A4B1A70D8
:401B40004FF400421F4B1A600BE01F4A137843F0100313700022134B1A7002E00020FFF7F7FD14F0200F1CD00F4B1B7813F0080F01D0012300E00223114A11780B43137089
:401B8000114A137803F0EF0313701022064B1A7038BD054B1B7813F0100F02D11022024B1A7038BDD7490040F783FF1FFB83FF1F0084FF1FD8490040F883FF1FF983FF1F35
:401BC000FA83FF1F80E100E0D6490040D9490040FC83FF1F0484FF1F0884FF1F1A4B1B78DBB2102B29D1194B1B7813F0080F26D14FF40042164B1A604000C0B229B140F07D
:401C000001004922104B1A7002E045220E4B1A70104B1870012201331A700F4B1B7813F0010FFAD00C4B1B7803F00A030A2B08D11022054B1A7003207047022070470120C1
:401C400070470020704700BFF783FF1FD949004080E100E0D8490040D74900400A4B1B7813F0040F0ED01023074A13700421023A1170064A1370064B1B7813F0210FFAD0A2
:401C80000020704702207047D9490040F783FF1FD7490040114B1B7813F0040F1BD0104B18700422013B1A7046220E4B1A700E4B1B7813F0010FFAD00B4B1B7813F0020F4A
:401CC00004D16022074B1A70002070476022054B1A70032070470220704700BFD9490040D8490040F783FF1FD7490040114B1B7813F0040F1BD0104B1B78DBB2492B05D19C
:401D000000220E4B1A704A220B4B1A700B4B1B7813F0010FFAD00A4B1B78DBB218B11021064A117004E06021034A117000E0002318467047D9490040F783FF1FD7490040A7
:401D4000D84900404FF40043044A1360044A107800211170034A1360704700BF80E100E0FA83FF1F00E100E008B501200C49FFF711FD01200721FFF721FD0023094A1370E3
:401D80007221094A11702021033A117006215D3A11704721103211704C32137008BD00BF491E00005681FF1F8B65004010B5FFF7C7FC04460B4A137843F020031370033A84
:401DC000137843F0100313700222074B1A60074A137843F01003137000F0ACF92046FFF7B3FC10BD9B65004000E100E09765004008B5054B5B7823B9FFF7B6FF0122024B79
:401E00005A70FFF7D3FF08BD5681FF1F034B1B7813F0040FFAD1024B18707047676500404865004038B5074B5B782BB938BDFFF7EDFF0134A4B201E005460024285D0028BA
:401E4000F5D138BD5681FF1F1D4B1B78DBB213F01E0F05D01B4803F01E0201780A43027003F0200303F0FF0233B3174B1978C9B2164B1B889BB21648C154164B1B7813F05E
:401E8000FF0F02D00121144B197010490B8801339BB20B800B889BB2FF2B02D900210B4B19800A4B198889B20C4B1B889BB2994202D10121074B1970002AC5D1704700BFF2
:401EC000686500405681FF1F4C6400405A81FF1F0C84FF1F5C81FF1F5D81FF1F5881FF1F08B502200C49FFF755FC02200721FFF765FC0023094A13707221094A117020219E
:401F0000013A117006215A3A117047211032117002F24F12137008BDA12000006081FF1F8564004010B5FFF70BFC04460B4A137843F020031370013A137843F010031370A4
:401F40000422074B1A60074A137843F01003137000F0FEF82046FFF7F7FB10BD9564004000E100E09965004008B5054B5B7823B9FFF7B6FF0122024B5A70FFF7D3FF08BD63
:401F80006081FF1F0422134B1A60134A9378DBB2D178C9B2127912F0FF0F01D18B4211D00E4AD05CC0B20133DBB2FF2B00D10023094A9370137913F0FF0F06D00022064B3F
:401FC0001A7102E0064B1878C0B20422054B1A60704700BF80E100E06081FF1F0C85FF1F4665004000E100E00422134B1A60134A9378D278DBB2934206D1104B1B7913F045
:40200000FF0F14D0FF2013E00C4A9378D278DBB2934205D2094AD3789078181AC0B207E0064AD3789078181A0138C0B200E000200422034B1A60704780E100E06081FF1F22
:4020400000E100E008B5FFF77BFB0B4B1A7842F001021A701A7802F0FE021A70FFF774FB0421064B1960064B00229A70DA701A715A71044B196008BD9665004080E100E047
:402080006081FF1F00E100E0034B1B7813F0040FFAD1024B18707047696500404D6400401C4B1B78DBB213F01E0F05D01A4803F01E0201780A43027003F0200303F0FF02D0
:4020C0002BB3164B1978C9B2154B1B78DBB21548C154154B1B7813F0FF0F02D00121134B19700F490B780133DBB20B700B78DBB2FF2B02D100210A4B1970094B1B780C4965
:402100000978DBB28B4202D10121074B1970002AC6D17047646400406081FF1F466500406381FF1F0C85FF1F6481FF1F6581FF1F6281FF1F054A137843F0020313701032FA
:40214000137843F002031370704700BFA2430040054A137843F0200313701032137843F020031370704700BFA2430040044A137803F0BF03800100F04000184310707047B9
:4021800020510040044A137803F07F03C001C0B203431370704700BF20510040024B1878C0F30110704700BF2151004008B501F0C7FB01F0CFFB08BD08B5FFF7F7FF08BDD6
:4021C00030B583B00C468DF8070001F003FCB4F5006F54D22509C5EB053319010C44A4B201F0A4FC00284CD1402021460DF10702012301F01BFC044607282FD1234B1B789B
:4022000013F0020FFAD0214B1B7813F0020F06D01E4B1B789B0805D04FF0FF3403E04FF0FF3400E00024E4B9194B402029461A785B7801F037FC072816D1144B1B7813F034
:40224000020FFAD0114B1B7813F0020F0FD00F4B1B789B0810D04FF0FF340DE0012809D10AE04FF0FF3407E04FF0FF3404E04FF0FF3401E04FF0FF3401F07EFC02E00124FF
:4022800000E00424204603B030BD00BF22470040C086FF1F38B50446FFF752FA054601F083FB04F1804000F500400478E4B201F089FB2846FFF748FA204638BD044A1378C6
:4022C00003F0FD03400000F0020018431070704720510040F8B5FFF733FA0546404A137843F0010313701032137843F00103137001273C4B1F700226943B1E7002F5E25217
:402300001B32137803F07F0313700020FFF738FA354C237803F0F9032370344A137803F0DF03137023783B4323703846FFF728FA2820FFF725FA2E4B1A7802F07F021A70DF
:402340001A7802F0BF021A702378334323703046FFF716FA237843F0040323700023254A1370013213702846FFF7EEF917200721FFF724FA17202049FFF70CFA1820072181
:40238000FFF71CFA18201D49FFF704FA15200721FFF714FA15201A49FFF7FCF903200721FFF70CFA03201749FFF7F4F904200721FFF704FA04201449FFF7ECF90520072105
:4023C000FFF7FCF905201149FFF7E4F90C200721FFF7F4F90C200E49FFF7DCF9F8BD00BFA54300409D6000409443004012600040F851004084600040192F0000E92C00006F
:40240000152F00005D2E0000952E0000D12E0000212F000008B5214B18700023204A1370204A1370204A1370204A1370204A1370204A1370204A1370204B4FF400021A6042
:402440004FF080721A604FF400121A6008221A6010221A6020221A6011B1012906D00BE0174A137803F0FE0313700AE0144A137843F00103137004E0114A137803F0FE037B
:40248000137003220F4B1A708022203B1A700120FFF74EF904220C4B1A7008BD2586FF1F2886FF1F4486FF1F4786FF1F3C86FF1F4686FF1F4986FF1F2486FF1F00E100E037
:4024C00009600040286000401260004038B505460C46064B1B7823B9FFF7FCFE0122034B1A7028462146FFF795FF38BD6781FF1F00230A4A13700A4A13700A4A13700A4A2E
:4025000013700A4A13700A4A13700A4A13700322094B1A708022203B1A7070472886FF1F4486FF1F4786FF1F3C86FF1F4686FF1F4986FF1F2486FF1F28600040014B187890
:40254000704700BF4786FF1F064B1B7813F0FF0F05D0044B1878C0B200221A7070470020704700BF4486FF1F00EB40008000024B18444078704700BF4C86FF1F431EDBB29E
:40258000072B0BD8064B00011A18185C00F00F00537843EA0020023880B2704700207047FC5F0040431EDBB2072B3BD8F0B4074600EB40039B001C4C2344DB889BB2C3F53E
:4025C00000739A4207D900EB40039B002344DA88C2F5007292B200EB40039B00124C2344DB7843EA1223114D04012E192B55D3B2737039B909E0CE5C3D010D4C665501334D
:402600009BB200E000239342F5D3430003449B00054A134400225A705A79D2B20001054B1A54F0BC704700BF4C86FF1FFC5F004078600040FE5F0040431EDBB2072B0BD87B
:40264000430003449B00054A134400225A705A79D2B20001024B1A54704700BF4C86FF1FFE5F004070B5D9B1054614460E46C8B1082819D8FFF782FFA04203D22846FFF7B9
:402680007DFF0446002305E02901094A525CF25401339BB2A342F7D32846FFF7CDFF04E0002402E0002400E00024204670BD00BF786000400246002001E0013080B2135CE4
:4026C000002BFAD1704700BF10B4FF2400220EE00A4B9B5C03EB43039B0009490B449B78DBB2834201D1144602220132D2B2012AEED920465DF8044B704700BF1486FF1F25
:402700005486FF1F10B5204C2079FFF7DDFF237813F0800F0ED06378DBB2212B2FD11B4B07221A80C0EBC000194A1044586000F049FB10BD144B5B78DBB2202B02D0222B19
:4027400010D01EE0114A07231380C0EBC00310490B4453600F4A135C43F00103135400F059FB10BD084B9B780B4A22F81030094A135C43F00203135400F0E4F910BD0020F3
:4027800010BD002010BD00BF006000403086FF1F1C81FF1F0C86FF1F2086FF1F10B500241F4B1C701F4B1C705C700AE01E4B185DC0B2431EDBB2072B01D8FFF73DFF0134C2
:4027C000E4B2012CF2D9194B1B7813F0FF0F1AD0154B1B7813F0FF0F17D0154B1B7813F0FF0F14D0114B1B78DBB2082B11D80E4B1B78DBB2082B0ED80D4B1B78DBB2082BB1
:402800000BD8002010BD012010BD012010BD012010BD012010BD012010BD012010BD00BF6881FF1F0C86FF1F1886FF1F1086FF1F1486FF1F70B506460D460E4B1B780E4A8E
:40284000D45CE4B204EB44039B000C4A13441B899BB28B4208D204EB44039B0013441D89ADB20020FEF774FF204631462A46FFF799FE70BD6881FF1F1086FF1F4C86FF1F15
:402880002DE9F8438046224B1B78224AD65CF6B2FFF710FF05460027344606EB46039B001D4A13441B899BB2AB4208D206EB46039B001344B3F808901FFA89F900E0A946A6
:4028C000304608EB07014A46FFF76CFEC9EB0505ADB245B906EB46039B000F4A13441B899BB2994510D14F44BFB204EB44039B00094A13445B7813F0FF0FF6D025B93046AA
:4029000000210A46FFF74EFE002DC5D1BDE8F8836881FF1F1086FF1F4C86FF1F00B583B002A901F8010D054B1B78054AD05C0122FFF738FE03B05DF804FB00BF6881FF1F42
:402940001086FF1F08B5034B1B78034AD05CFFF70BFE08BD6881FF1F1886FF1F08B5034B1B78034AD05CFFF7FFFD08BD6881FF1F1086FF1F08B50146074B1B78074AD05C16
:40298000C0B200EB40039B00054A13441A8992B2FFF768FE08BD00BF6881FF1F1886FF1F4C86FF1FC37803F0030390F9020000280FDA032B06D002F001030B48C15442F058
:4029C00001020EE0C2F380030848C15442F0040207E0032B05D0C2F340030548C15442F002021046704700BF1086FF1F1486FF1F1886FF1F1C4B19781C4A13880B449BB20E
:402A0000138000230EE01A4A51680978C9B21948C1545168013151600133DBB21188013989B21180124A128892B20AB1072BEAD90D4A1278D2B2082A00D05BB10E490A7831
:402A400082F080020A700F210C4A117002210C4A117004E0022209490A7009490A70094A1370014A137070472486FF1F2686FF1F3086FF1F00600040BA86FF1F4586FF1F9F
:402A80002886FF1F4886FF1F0222074B1A708022064B1A700F22064B1A700023054A1370054A1370012070472886FF1FBA86FF1F4586FF1F2486FF1F4886FF1F08B5FFF7BC
:402AC00099FF08BD10B4184B197801F00F010239C9B2164A13880B449BB21380002010E0134B5C68134A125CD2B222705A6801325A600130C0B20139C9B21A88013A92B2A5
:402B00001A800B4B1B889BB20BB10029E8D10A4B19700A4A137883F0800313700B22084B1A705DF8044B7047296000402686FF1F3086FF1F006000404886FF1FBA86FF1F2B
:402B40004586FF1F0623064A1370064A13708022054B1A700022054B1A700120704700BF2886FF1F4586FF1FBA86FF1F4886FF1F064B9B6843B1054B9A6810709A68044926
:402B80000988518000229A60704700BF3086FF1F2686FF1F08B5134B1A78D2B21A701B78DBB213F0800F02D00F4A137008BD0220FFF7DEFF0D4B1B7803F06003202B05D04D
:402BC000402B06D043B900F091FC06E001F004F803E000F039FE00E0002010B90322024B1A7008BD286000404586FF1F0060004008B5084B1978084A13880B449BB21380A6
:402C00000022064B1A700120FFF7B2FF0322044B1A7008BD2486FF1F2686FF1F2886FF1F4586FF1F08B50B4B1B78DBB2042B06D0062B07D0022B0BD1FFF7DAFF08BDFFF7F2
:402C400041FF08BD0320FFF793FF0322024B1A7008BD00BF2886FF1F4586FF1F08B50022044B1A700120FFF783FF0322024B1A7008BD00BF2886FF1F4586FF1F08B50B4BD6
:402C80001B7813F0FF0F07D0084A137843F0800307490B70002313700022064B1A700120FFF766FF0322044B1A7008BD4686FF1F086000402886FF1F4586FF1F08B5094B01
:402CC0001B78DBB2042B06D0062B07D0022B07D1FFF7F4FE08BDFFF7C1FF08BDFFF7CEFF08BD00BF2886FF1F08B5284B1B78DBB213F0100F48D013F0800F0CD003F00F036A
:402D0000012B16D1FFF746FF214B1B7813F0800F11D1012312E013F0400F03D0FFF7CEFF01230BE013F0200F07D0FFF77BFF012304E0002302E0002300E0002323B3134BE5
:402D40001B7813F0800F1FD1124B1B78124A12781343124A13701278D2B29A4214D10C4B1B78DBB2094A127812F0800F07D1084B1B78DBB2054A1370137803F00F03044A84
:402D80001278D2B29342EAD108BD00BF286000404586FF1FBA86FF1F4886FF1F296000400022064B1A80064B9B682BB1044A916800230B7092685380704700BF2686FF1FFE
:402DC0003086FF1F08B50F4B1B889BB213B9FFF75BFE15E002220C4B1A7000220B4B1A70FFF7DEFF0A4AD179937943EA0123054A128892B29A4201D9024A1380FFF7FAFD64
:402E0000012008BD3086FF1F2886FF1FBA86FF1F0060004008B504220B4B1A7080220B4B1A70FFF7BDFF0A4AD179937943EA0123084A128892B29A4201D9064A13800B2226
:402E4000054B1A70012008BD2886FF1FBA86FF1F006000403086FF1F4586FF1F0A4A137803F0FE031370094B9B7C094B1B7B03F00303012B04D0064AD37B83F08003D3738D
:402E80000122034B5A7370470B600040FC5F00404C86FF1F0B4A137803F0FD0313700A4B93F82230094B1B7E03F00303012B04D0064AD37E83F08003D3760122034B5A7658
:402EC000704700BF0B600040FC5F00404C86FF1F0D4A137803F0FB0313700C4B93F832300B4B93F8243003F00303012B06D0084A92F8273083F0800382F827300122044BF0
:402F000083F82520704700BF0B600040FC5F00404C86FF1F704700BF08B5FFF7E9FA08BD08B500F0AFFC08BD70B588B0054603AC174E0FCE0FC43368237035B322232B70D5
:402F400003236B7001A8FEF751FC002402231AE008AA224412F81C2C08A901EB121111F8141CE954581C00212954981C02F00F0208AE324412F8142C2A54DA1CA95401349D
:402F8000E4B20433DBB2212BE2D908B070BD00BF603E000010B401223DE0114613010C242148C45402EB42039B00204803445B7913F0FF0F12D002EB42039B0003441B7963
:402FC00013F0800F04D01001194B03449C700AE01001174B03440820987004E01001144B0344802098704B000B449B000F480344DC88E4B208010C4901448C71D888C0F30C
:403000000720C871D888C0B20871DB88C3F307234B710132D2B2082ABFD9FF22054B1A705DF8044B704700BF706000404C86FF1FFC5F00400A600040074B1B78074A02EBE8
:40304000C30253681A7C824203D903EBC003586970470020704700BF2586FF1FB03E0000F8B5404B1B7813F0FF0F79D03D4B18780138C0B2FFF7E0FF047AC2683A4B1878AA
:40308000C0B200236AE01178814264D13749095CC9B25578A9425ED1917801F07F01D67806F00306DFF8C8E04D000D44AD000EEB05074FF0000C87F803C092F802C087F87B
:4030C00004C092F803C00EF805C095883D8192F90250002D0DDA012E01D1072700E00D274D000D44AD00224E35446F7101266E700CE0012E01D1052700E009274D000D4405
:40310000AD001B4E35446F7100266E70DFF868E00F010EEB07060125B57001FA05F529448900134D29440D89C5F307250EF807500D89EDB27570CE88F6B20E4D3D44AE71FA
:40314000CE88C6F30726EE71CE88F6B22E71C988C1F30721697108320133DBB2A34292D3F8BD00BF4786FF1F3C86FF1FB886FF1F4C86FF1F70600040FC5F0040034B1A78B5
:40318000034B03EBC2035868704700BF2586FF1FB03E000008B5074B18780138C0B2FFF74BFF28B14268127900EBC203586908BD002008BD4786FF1F2DE9F84300220EE022
:4031C0006D4E53009D18AD00741900217155A170E1702181A172617061710132D2B2082AEED940B90AE000226449CA546449CA540133DBB200E00023012BF4D9614B1B78EA
:4032000013F0FF0F00F0B5805E4B18780138C0B2FFF712FF80464368DB7913F0400F05D0594A137843F00103137004E0564A137803F0FE03137098F808704FF0000901269C
:403240006CE0D8F80C50002464E0AB7803F07F039E425CD1314606EB46039B00464803441B899BB2A888834205D206EB46039B00414A134418812B784048C35CDBB26878E4
:40328000834244D195F802C03B484B000B449B0000EB030E8EF804C095F803E000F803E0EB7803F0030395F90200002811DA012B02D14FF0070C01E04FF00D0CDFF8B8E0A4
:4032C0004B0058188000704480F805C00123437012E0012B02D14FF0050C01E04FF0090C25484FEA410E0EEB01039B00034483F805C0194600234B70AB790A2B01D0022BAD
:4033000005D1284631464A46FFF74CFB814608350134E4B2BC4298D30136F6B2082E90D9D8F80C0000220CE0837803F07F0310F8084B03EB43039B0014490B449C700132E0
:40334000D2B2BA42F0D3FFF725FF114B1860002001220AE0084C5300991889002144C8800B89184480B20132D2B2082AF2D9FFF711FEBDE8F88300BF4C86FF1FB886FF1F5B
:403380002C86FF1F4786FF1F4986FF1F5486FF1F4086FF1F08B5154B1A7902F07F02531EDBB2072B20D8530013449B0010490B44997841F0010199700021D970597841F098
:4033C000020159701B7913F0800F05D01201094B13448D229A7004E01201064B134489229A70FFF7AFFB08BD002008BD006000404C86FF1FFC5F0040264B1B7903F07F034C
:403400005A1ED2B2072A43D810B55A001A44920021490A44917801F0FE0191700021D17019017F241D484454517801F0FD015170127912F0800F14D003EB430292001649CA
:403440000A445278D2B2012A05D11B0102461A440C23937019E01B01104A1A440D23937013E003EB430292000B490A445278D2B2012A05D11B01094A1A440823937004E033
:403480001B01064A1A4409239370FFF75BFB10BD00207047006000404C86FF1FFC5F004010B50E4B1C79E4B20D4B18780138C0B2FFF7C2FD43681B799C4201D9022C0AD860
:4034C000084A135DDBB208490B55044B9B78DBB21355012010BD002010BD00BF006000404786FF1FB886FF1F2C86FF1F10B5964B1B78DBB20021954A118013F0800F00F04B
:40350000B380914A5278D2B20A2A00F27981DFE812F06F00770177017701770177010B00770198007701A000874BDB78DBB2012B09D1FFF723FE4268844B5A6012221A807C
:40354000FFF740FC10BD804BDB78DBB2022B13D17D4B9878FFF770FD002800F0538142687A4B5A605A68D1785A68927842EA01221A80FFF727FC10BD734BDB78DBB2032BCE
:4035800005D032E00A7811440133DBB201E000236F496D4A9278D2B29A4203D90A7812F0FF0FEFD1684B9B78DBB2EE2B00D16949654B9B7813F0FF0F0BD0634B9B78DBB295
:4035C000654A127C934204D1644C2046FFF7ACFC21460B7813F0FF0F00F016810B785B4A13805160FFF7EEFB10BD00F0F5FA10BD13F0030317D0022B40F0088153490B80ED
:40360000514B1B7903F07F0303EB43039B00544A13449A78D2B2534B1A7000225A704B60FFF7D0FB10BD494902230B804E4B1A78D2B24C4B1A7000225A704B60FFF7C2FBE2
:4036400010BD424B01221A80484A5A60FFF7BAFB10BD3E4A012313803B4B1B7944490B445360FFF7AFFB10BD374A5278013A0A2A00F2CE80DFE812F04B00CC009700CC00DD
:403680000B00CC00CC00CC001300CC0030002E4B9B78DBB2374A1370FFF754FA10BD2A4B9B7803F0FF041BB1601EC0B2FFF7C4FC04B110B9002C40F0AD802C4B1B78DBB2D0
:4036C0009C4206D0294B1C7001202B4B1870FFF773FDFFF737FA10BDFFF7E2FE002800F09B80194A1379DBB21279D2B223490A70234AD25C1E49C95CD3B28B4204D00122B3
:403700001D4B1A70FFF7ACFCFFF71CFA10BD03F00303012B36D04BB1022B7FD10A4B9B7813F0FF0F7CD1FFF767FE10BD064B9B78DBB2012B76D10C4A137803F0FD031370D3
:40374000FFF700FA10BD00BF006000403086FF1F183F00009C3E0000FC3F0000C486FF1F4C86FF1F6C81FF1F4986FF1F4786FF1FB886FF1F4686FF1F4486FF1F3C86FF1FA4
:403780002C86FF1F2D4B1B79DBB2012B4CD82B4B98781B79DBB22A49CA5C22EA0002CA54FFF7D0F910BD03F00303012B17D04BB1022B3BD1214B9B7813F0FF0F38D1FFF788
:4037C000E9FD10BD1D4B9B78DBB2012B32D11D4A137843F002031370FFF7B4F910BD174B1B79DBB2012B27D8144B98781B79DBB21349CA5C22EA0002CA54FFF7A3F910BD77
:40380000002010BD002010BD002010BD002010BD002010BD002010BD002010BD002010BD002010BD002010BD002010BD002010BD002010BD002010BD002010BD0060004005
:40384000BC86FF1F4986FF1F08B50B4B1B7813F0800F0CD0084B5B78DBB2012B09D1074B074A5A6012781A80FFF7ACFA08BD002008BD002008BD00BF006000403086FF1F4F
:40388000743E0000024B1878C0F38010704700BF8F45004010B500F09DF800F047F9D0B900F086F90446072812D102E00120FDF767FF0A4B1B7813F0020FF7D0074B1B78D9
:4038C00013F0020F04D0054B1B789B0800D1002400F052F900E00424204610BD2247004010B500F077F800F021F910BB012000F0FFF8072818D11048022100F07DF8022823
:403900000AD102E00120FDF73BFF0C4B1B7813F0020FF7D0002409E0084B1B7813F0020FE9D04FF0FF3401E04FF0FF3400F024F900E00424204610BDC086FF1F22470040DC
:4039400008B5FFF7A7FF034610B9FFF7C9FF0346184608BD08B5FDF7F3FE0F4A137843F0080313701032137843F008031370C8220A4B1A700A4A137843F01003137010322A
:40398000137843F010031370064B1B7813F0200FFAD0FDF7D9FE08BDA043004001470040AC43004000470040054A137843F001031370034B1B7813F0020FFAD0704700BF19
:4039C00002470040024A137803F0FE03137070470247004008B5FDF7B3FE064A137843F0080313701032137843F008031370FDF7ABFE08BDA043004070B506460D460024B7
:403A00000CE00120FDF7BCFE064B1B7813F0010FF7D0054B1B7833550134E4B2AC42F3D3204670BD224700402047004030B43E2801D81F2B03D93F2827D90F2B27D8174CF4
:403A4000247814F0020F24D0154CB6252570D4252570012525700234247814F0020F1AD10F4C2070C1F300202070C9B22170591EC9B22170002104E0545C0948047001312B
:403A8000C9B29942F8D3072006E0012004E0012002E0042000E0092030BC7047224700402047004030B4104C247814F0020F15D00E4CB6252570D825257005252570023489
:403AC000247814F0020F0BD1084C2070080A2070C9B2217022702370072002E0042000E0092030BC704700BF22470040204700400C4B1B7813F0020F0FD00B4BB6221A7005
:403B0000E1221A700E221A7002331B7813F0020F05D1054B187007207047042070470920704700BF224700402047004010B5FDF707FE0F4B1B78A3B901220D4B1A700D4BA8
:403B40001B6813F0010F0ED00A4A136823F00103136000BF00BF00BF0122054B5A60002402E0042400E00024FDF7EEFD204610BD7081FF1F0400084008B5FDF7E1FD0A4B8B
:403B800000221A705B68012B0AD1084A136843F00103136000BF00BF00BF0022024B5A60FDF7D2FD08BD00BF7081FF1F04000840074B1B7813F0020F08D0064BB6221A708C
:403BC000E0221A700D221A700720704704207047224700402047004008B5124B1B7803F00303012B02D0022B04D00FE00D4B1B79DBB20CE00B4B1B7903F07F0303EB4303EB
:403C00009B00094A13449B78DBB200E00023074A1268D35C022B02D1FEF774FD08BD002008BD00BF006000405486FF1F4086FF1F0E4B70B51E460E4C0025E41AA410A5425D
:403C400004D056F8253098470135F8E700F0E0F9084B094C1E46E41AA4100025A54204D056F8253098470135F8E770BD1C4000001C4000001C4000002440000010B5431E10
:403C80000A44914204D011F8014B03F8014FF8E710BD03460244934202D003F8011BFAE770470000000000000A0A4E6F2068617920636F6D756E69636163696F6E20636FA1
:403CC0006E206573746120706F736963696F6E2E0A0A0A0A0A0A00000A0A506F736963696F6E204F4B2079206E6F206861792072656369626F73207061726120696D7072EE
:403D0000696D69722E0A0A0A0A0A0A000A0A506F736963696F6E206F6375706164612E0A0A0A0A0A0A0000004F4B00004552524F5200000031000000312E3500320000008E
:403D40004E6F6E65000000004F6464004576656E000000004D61726B000000005370616365000000FFE9FEE0E1E0FBEEF00000002020202020204553544143494F4E2044BD
:403D80004520534552564943494F0A004E4954200000000054454C3A0000000046454348413A2000484F52413A202000504F534943494F4E3A20200050524F445543544F63
:403DC0003A2020005050553A20202020202020242F472000564F4C554D454E3A202020472000000044494E45524F3A20202020242000000020202020202047524143494133
:403E00005320504F5220535520434F4D50524100202020202020202020205655454C56412050524F4E544F00C8490040190040510040300000000140001000140140000846
:403E400000400140000A004C014000021050014010000000005001402810004810000000303132333435363738394142434445460000000028000000000104000100000086
:403E80000000000000014359555342000000303030303100000000000000000012034D005300460054003100300030000100000001000000B83E000001000000FC3F000076
:403EC000000000000000000001000000D03E000001000000B83F000003000000FC3E00000000000000000000000000000000000000000000F83E0000020A000000008103B8
:403F0000080002000100820240000A000100030240000A0002030000040309042C0343007900700072006500730073002000530065006D00690063006F006E006400750060
:403F4000630074006F007200100355005300420055004100520054003803430044004300200043006F006D006D0075006E00690063006100740069006F006E00200049006C
:403F80006E007400650072006600610063006500260343004400430020004400610074006100200049006E007400650072006600610063006500000009024300020101C069
:403FC00032090400000102020103052400100104240202052406000105240100010705810308000A09040100020A00000407058202400000070503024000000012010002C2
:4040000002000008B40432F20100010280010000F8B500BFF8BC08BC9E4670474D00000011140000F8B500BFF8BC08BC9E46704729000000484000000881FF1F300000001D
:40404000B005000000000000000000000000E880D0010100420000008014EF0300C2010000000800C201000000080000A12000000000020000000000000000000000000030
:404080000000000000000000000000000000000000000000000000000000000000000000000000000000000000000000000000000000000000000000000000000000000000
:4040C00000000000000000000000000000000000000000000000000000000000000000000000000000000000000000000000000000000000000000000000000000000000C0
:40410000000000000000000000000000000000000000000000000000000000000000000000000000000000000000000000000000000000000000000000000000000000007F
:40414000000000000000000000000000000000000000000000000000000000000000000000000000000000000000000000000000000000000000000000000000000000003F
:020000040003F7
:0200000480007A
:40000000014500400852004007640040086500405A000140330101405D0201404A03014042040140490501405D0601404E07014052080140470901406B0A01404D0B01403F
:400040005E0C0140360D0140010F0140521401405D150140641601405D170140601801404D1901405F1A01405A1B01400840014009410140104201400A43014001440140AB
:4000800002450140014601400447014010480140214901400D4C01400C4D014003500140035101407E02143018121C60600A6108780179017C408072833884388572870F21
:4000C0008A388D72840F85388672870F8838890F8A0F8B72004C012002A3044F0530069009100A400CF30E0C0F0B10FF110214011501180319031C082042214F23302404B8
:400100002570270F280C29782B072D7F2EB3300F3103328C3340347C3504373839203AAA3F044006464049FF4A074BFF4C404D204EF04F05500856025712580459045A047A
:400140005B045D035F01604061A86240632087019301A901AD01B701B980BA02C006C540C9FFCA07CBFFCC40CD20CEF0CF05D008D608D804D904DA04DB04DC55DD92DF010C
:40018000E040E1A8E240E3200040010A0208081209080A011028120113011840196D1B211F01212022452580280229652F093011310832103601382839803A023C084B1029
:4001C0004D014F205240531056045A085F806954703C72038102832084088701C00FC20FC40FCA3FCC87CE4FD224D612E20803080531061007C60A100B530DAC0F43100827
:40020000140F180419311A011B4E1C011E062002213022012340278C280F310F321033F0340836073B0A3E045608580459045B045C255D905F018114820483898401853F34
:400240008802893F8D208E089208950A979199019A049B46A201A401B008B1C0B203B318B404B507B720B808BE11BF01C021C105C206C404C5E0C7C0C822C9FFCAFFCBFF3C
:40028000CC62CDA0CEF0CF41D00CD418D804D904DA04DB04DC02DF01E640E702E910EA30EB10ED10EE10EF120020010202260410061009200A800C080E410F04110A148073
:4002C000158016011710180419081B011E051F4421492210244025052C802D0831083210362039543B013C603D0940084141496252025A0E5D806004630264016701812080
:400300008240915592829322958096209711980899409A449C019E01A1A0A404A508A609A718B780C06FC2FAC45CCAC0CC26CEFFD00DD20CD611D81CE602EC1003020A022C
:400340000E021B011F01200130023302350136013E413F1054185604580459045B045D505F01804F81208290840C8502870488048D018E4090FF9170930B953096B3984261
:4003800099109C039F0BA001A103A44CA578A6A3A703A8F3A94BAA0CAB30AC08AD7BB104B20FB340B47CB538B68CB703BAA8BF04D602D712D804D904DB04DC55DD50DF01CC
:4003C00003060480050506080C010D080E010F041280149416011A021B011C081E061F08200422082480260427052C152E852F49318832143440351536013B013D803E023B
:400400003F045B015E086004620263026C086D046E406F107514760B7C807D80844086079101920893AB94109640971499089A449C809E109F10A185A48CA629A718B18088
:40044000C0F3C2F0C4F8CAF0CCFCCED1D641D80DEC8001120560083E09780B070C080E700F1B1160131F1412151F168C17601C241D1B1E8B217F2520283E29092D40300173
:400480003206330434C035783638370339083B203E10406541044203440246E047C0482849FF4AFF4BFF4C624DA04EF04F41500C5608580459045A045B045C225D925F0147
:4004C0006640670269106A306B106D106E106F128173830C8B088C018D2A8F44957397049C02A103A344A804AF55B10FB201B330B402B604B740B908BB02BE54BF44D40115
:40050000D804D904DB04DC30DD30DF010040042005400A010B020E200F01112015101A061B041D601E601F082101224023102418270A28822A412C602D802F08320835411B
:40054000370839A23C283F81444045284C044E024F805610570159205A855C205D4060086308670587108A418C408D029105920893A8941096209714980499089AC49B0408
:400580009E10A008A105A480A540A6A0A712C0C1C2A1C442CAF9CCD2CEFDD0E0D230D63FD830E002E220E4020042030B040C054F07300804097F0C080D700F0F104F117872
:4005C0001290130714FF153018F319031A0C1C4C1D201EA3224024012510280329012D022EB3308C31033338340F3540367C370439803AAA3F105608580459045B045C1144
:400600005D905F01844D856186308716895C8B038C028E548F239220942895619651970E9F1CA308A40CA650A84DAA10B003B160B31AB43CB50FB640B802B902BA20BB28B6
:40064000BE40BF01D804D904DC55DF01004E01020548064C0AA00D800E140F80121816221711180419801A801C821D801E1421192218240226152A012C042EA83108324023
:40068000355A371038C439283C803D0A3E163F80442046105C105F806401670287C08A018F049080920893089402950A96A09702980699219AD19B019C819D10A404A505F5
:4006C000A68EA728B021C0F5C2FCC4F6CA71CCFACEFED630D810E240E48001040410060C09020A030C100D260FC9100911FF1210141C15A6160217511A201F202220239921
:40070000241425F92706280C29062A112D203107321F333E34203540378639203B0A3E104004474049FF4A074BFF4C404D204EF04F0550085418580459045A045B045C35DB
:400740005D355F01604061A8624063208201857C897C8A018D048F1999289B469E02AA02AD50AF26B201B303B560B602B71CBE44BF04C064C105C203C402C5E0C70CC81217
:40078000C9FFCAFFCBFFCC62CDA0CEF0CF41D00CD608D804D904DA04DB04DC30DD93DF01E640E702E910EA30EB10ED10EE10EF120018012002010402060409200AA00F01A1
:4007C00010801228160818141D401F0420022128235125402610272028412A202B102F0131083281361038203A023B403DC03E1441014460450247204C804E014FA05040C8
:4008000052015340560859025C806004614066C07BC09020921C954897D2980699039A369B019D109E80A102A220A390A505A61EA728B402B504C057C28EC44ECA1FCC2B25
:40084000CE7DD0E1D230D611D81C1201150817121A011B01251829182D102F0E31033201351837043A803E043F014034410542024401460C470E481449FF4AFF4BFF4C621D
:400880004DA04EF04F41500C580459045A045C135D015F016640670269106A306B106D106E106F12807F844F85028630880589028C0F8D02920F9470960F9C0AA020A4100F
:4008C000A830AC7CAD01AE03B003B102B240B301B43CBA20BE04BF04C035C106C50BC6CEC80DC9FFCAFFCBFFCEF0CF44D00CD602D712D804D904DA04DB04DC33DD35DF0109
:40090000E6C0EA40EB020014014003800501064009020B120D200E080F80102813411804190A1B101D041F802102220427452A402E802F28340435103704399441044525CE
:4009400047404A284B804E0252505604574059085C105E2069946A14703872227301C00FC25DC40FCA78CC60CE0ED0F2D21CD602E602E20804070509071009100D1C0F4232
:4009800010021204154C171119201F03220424072550270C29142A052D8030043320340335C0371F382039203E113F044036410246EC470B481C49FF4AFF4BFF4EF04F4480
:4009C000500C5401580459045A045B045C305D225F0166C06A406B028201851087AC88028B20900294029703990C9B719E01A110A340A509A7D0A914ADDCAF22B001B31F43
:400A0000B5E0B602BBA0BE01D418D604D804D904DB04DC22DD20DF0102200421080109010C020E200F021080110812041310144017011A401B101F41219022842304240496
:400A40002624270128022A082B082C092D09318032083320362439803B243D083F104024442045044A024B90508853A059025A685F026601670A8211838089028A408B20D7
:400A80008C5090219181932894509520980299089A0C9B029C409E40A002A105A218A309A480A6A6A710A820AD10AE20B120B201B608C054C2B8C40ECAFECC6ECE6ED0062D
:400AC000D204D68FD8B0E201E401E802EA09EC10EEA000B902440439050206C2071108CF0A300C200D010F121208150416C618101C0820FF2308250328302903303E31186D
:400B000032703401350436B037033A0A3E103F114026410442034401450E47C0482149FF4AFF4BFF4C624DA04EF04F41500C56025712580459045A045B045C525D255F0144
:400B40006640670269106A306B106D106E106F12850687098B2B8D548F0991679318AB10AD67AF08B11EB360B701B908BB02BF44C021C106C5E0C7CBC832C9FFCAFFCBFF9A
:400B8000CEF0CF44D00CD401D904DA04DB04DC10DD13DF01E6C0EA40EB02058507080C200D080E400F01144017101C211D051E0422412320256027402A602C082D042F407C
:400BC00032013604385039083D803F044002410442184404468047444A084B024E14520153085702580859025A905E046C126D106E20742475807710814085088602890436
:400C00008B208D109105924893AD942195B096209702980E990A9A8C9B0E9C609D819E01A008A105A301A4B4A550A6AAA712A801A908B101B208B480B560C0F0C2F0C450D5
:400C4000CAECCC41CE5ED0FCD224D64FE209E601E840EE04000402010303040F0501070E080F091C0B030C080F0814021601180119011A061B16271C2F203008331A3407FF
:400C8000350F37203B284026410345C047BE483249FF4AFF4BFF4EF04F44500C54185604580459045A045B045C315D115F0166C06A406B02800C821184108531860C874664
:400CC0008D6C8F03934C9603971399319B0E9C099E10A010A308A414AC1CAE02B10FB21FB330B54AB908BB22BF04C003C540C9FFCA07CBFFCC40CD20CEF0CF05D008D401BF
:400D0000D804D904DA04DB04DD50DF01E040E1A8E240E3200004038004280640070109010A520C040E04108012221A101D101E442040210422122514268029022C202F011D
:400D400030083211341038443D283E013F4041044628488049024D014F20500856015704582059815A085E02640267888110874089418E109209934A9410983699A19A4061
:400D80009C809D589E04A211A501A680A72CB010B612C0FCC265C40DCA51CC27CEFAD062D220D68FD8B0E420E691E820EE04003302040433060C0C0A0E34140316141E0855
:400DC000248028402A1530103280340F366038803A203E0540264101450B46E0470C481949FF4AFF4BFF4EF04F44500C540158045A045B045F0166C06A406B02801C820283
:400E00008409851186108746880C89208A118B038C149020914C920393139511970E98109B4CA010A20CA708A980B01FB180B330B420B54AB70FB908BBA0BE10BF01C00167
:400E4000C504C9FFCA07CBFFCC40CD20CEF0CF05D008D602D711D804D904DA04DB04DC11DD11DF01E040E1A8E240E3200044038004020601071809080A120E800F08100847
:400E800012101502180419041A421C081E802402260A271A2D24371A3E083F2040044380454048084A204D044F08510852105710580159045A505E206C146F297548760487
:400EC000801082028401861088048A208B088C018F1090409102943C960299209A099D489E249F01A008A140A210A380A628A738AC20AE08B101B208B480B504B610B7807D
:400F0000C0FDC255C416CA60CCE0CE60D01CD204D62FE250E401E680E820EA01EC10EE603311340235803A208620CCF0CE10E210338084029C029D809E809F11B680CC10EF
:400F4000E64002103E105608860887019D809E809F11A520A780B120C010CE20D440E240E6408610888096109A109D809E809F10A520A780E04087108710971097300B2208
:400F80000F109730C20E5C80800485809440961098809D809E809F10A520AB80B440D620E210E680EE20028004400D201220168055085F087004772081088220831090087A
:400FC00094409B289E809F10A520A680AA90B328B680C090C280C430D440D680DC80DE20E2A0E480EA80EC200D8012201320161058027B107C018220AB01C201C40ED6027C
:40100000DE03831088029C02A710AB20B210B401B580E004EA08EC08EE04102F1A2E1C2B00BF010A03C000002F010000000000002D012D012A012A000006060000000000E2
:401040000B0004383B000B00000000004100000101000100C0000000400080444400400000000000300030F2C2000000000000001200891272001200000000000000000012
:401080000000000000000000000000000000000000000000000000000000000000000000000000000000000000000000000000000000000000000000000000000000000030
:4010C00000000000000000000000000000000000000000000000000000000000000000000000000000000000000000000000000000000000000000000000000000000000F0
:4011000000000000000000000000000000000000000000000000000000000000000000000000000000000000000000000000000000000000000000000000000000000000AF
:40114000000000000000000000000000000000000000000000000000000000000000000000000000000000000000000000000000000000000000000000000000000000006F
:0200000490006A
:0400000000004005B7
:0200000490105A
:04000000BC90ACAF55
:0200000490303A
:02000000EC72A0
:0200000490402A
:400000005555555555555555555555555555555555555555555555555555555555555555555555555555555555555555555555555555555555555555555555555555555580
:400040005555555555555555555555555555555555555555555555555555555555555555555555555555555555555555555555555555555555555555555555555555555540
:400080005555555555555555555555555555555555555555555555555555555555555555555555555555555555555555555555555555555555555555555555555555555500
:4000C00055555555555555555555555555555555555555555555555555555555555555555555555555555555555555555555555555555555555555555555555555555555C0
:0200000490501A
:0C00000000012E16106900012E32FCDBFE
:00000001FF