:400000000080002011000000D90A0000D90A000008B5044B1A6803F53F5302331A6000F063FD00BFFA46004010B5054C237833B9044B13B10448AFF300800123237010BD51
:400040006081FF1F000000004C2F0000084B10B51BB108490848AFF300800848036803B910BD074B002BFBD0BDE81040184700BF000000006481FF1F4C2F0000C880FF1FDC
:4000800000000000F8B562B66A4B04261E6002251D6000F04FFE01F049F901F0A7F80021084601F047FB01F0BDF9642000F078FD002001F023FA604F3870012001F01EFA99
:4000C0005E4B187001243C701D70284601F016FA5B4B1870032001F011FA5A4B1870304601F00CFA584B187006E0201D01F006FA554B18550134E4B2534B1B78DBB29C4268
:40010000F3D9222001F0FAF9504B1870012407E004F1220001F0F2F94C4B18550134E4B24A4B1B78DBB29C42F2D9402001F0E6F9474B1870012407E004F1400001F0DEF92B
:40014000434B18550134E4B2414B1B78DBB29C42F2D9312001F0D2F93E4B1870012407E004F1310001F0CAF93A4B18550134E4B2384B1B78DBB29C42F2D95E2001F0BEF931
:400180002D4C84F858005F2001F0B8F984F85900602001F0B3F984F85A008E2001F0AEF9264C84F858008F2001F0A8F984F85900902001F0A3F984F85A00612001F09EF94B
:4001C000254B1870012407E004F1610001F096F9214B18550134E4B21F4B1B78DBB29C42F2D9702001F08AF91C4B1870012407E004F1700001F082F9184B18550134E4B2E3
:40020000164B1B78DBB29C42F2D97F2001F076F9134B1870012407E004F17F0001F06EF90F4B18550134E4B20D4B1B78DBB29C42F2D9F8BD00E100E03C83FF1F9C81FF1F96
:400240000F82FF1F6A82FF1F1483FF1F0082FF1F1082FF1FE482FF1F6C82FF1F5482FF1FFC82FF1F30B591B001F0A2FA20B101F099FA08B101F0C4FB01F094FA002800F098
:400280005F8201F095FC002800F05A82684601F0A7FC0446002800F05382012001F042F901F092FC0028FBD0631E10AA1A4412F8402C2A2A40F03A829DF80020303A172A00
:4002C00000F23482DFE812F018001C003300480072009C00C600F00007011E01320232023202320232023202320235014C0163017A01BA01E4010E02B44801F0F5FB15E2A1
:400300009DF80230A3F13602D2B2012A0BD803F00F03AF4D2B70AD4801F0E6FB2878022101F084F802E2AB4801F0DEFBFEE19DF80220A2F13003DBB2012B09D8A64B1A70F3
:400340001878032101F072F8A04801F0CDFBEDE1A04801F0C9FBE9E1212C23D8E21ED2B29E490A70022208E0511E10A8104410F8405C9A4845540132D2B29342F4DC002544
:4003800006E0964B585D291D01F050F80135EDB2924B1B78DBB29D42F3D9904B187801F0F3FBC3E18B4801F09FFBBFE1122C23D8E21ED2B28A490A70022208E0511E10A89C
:4003C000104410F8405C864845540132D2B29342F4DC002507E0824B585D05F1220101F025F80135EDB27E4B1B78DBB29D42F2D9764801F079FB99E1764801F075FB95E1F3
:40040000122C23D8E21ED2B276490A70022208E0511E10A8104410F8405C724845540132D2B29342F4DC002507E06E4B585D05F1310100F0FBFF0135EDB26A4B1B78DBB2B6
:400440009D42F2D9614801F04FFB6FE1614801F04BFB6BE1212C23D8E21ED2B262490A70022208E0511E10A8104410F8405C5E4845540132D2B29342F4DC002507E05A4B0A
:40048000585D05F1400100F0D1FF0135EDB2564B1B78DBB29D42F2D94C4801F025FB45E14C4801F021FB41E19DF80220A2F13103DBB2022B0BD84D4B83F8582093F8580039
:4004C0005E2100F0B3FF414801F00EFB2EE1414801F00AFB2AE19DF80220A2F13103DBB2022B0BD8414B83F8592093F859005F2100F09CFF354801F0F7FA17E1354801F070
:40050000F3FA13E19DF80220A2F13103DBB2022B0BD8364B83F85A2093F85A00602100F085FF2A4801F0E0FA00E12A4801F0DCFAFCE09DF80220A2F13103DBB2022B0BD821
:400540002B4B83F8582093F858008E2100F06EFF1E4801F0C9FAE9E01E4801F0C5FAE5E09DF80220A2F13103DBB2022B0BD8204B83F8592093F859008F2100F057FF1348B6
:4005800001F0B2FAD2E0134801F0AEFACEE09DF80220A2F13103DBB2022B0BD8144B83F85A2093F85A00902100F040FF074801F09BFABBE0074801F097FAB7E0122C39D8EF
:4005C000E21ED2B20B490A7002221EE0D02F00000F82FF1FD42F00006A82FF1F1483FF1F0082FF1FE482FF1F1082FF1F3C83FF1F9C81FF1F6C82FF1F511E10A8104410F89C
:40060000405C504845540132D2B29342F4DC002507E04C4B585D05F1610100F007FF0135EDB2494B1B78DBB29D42F2D9474801F05BFA7BE0464801F057FA77E0122C23D828
:40064000E21ED2B243490A70022208E0511E10A8104410F8405C3F4845540132D2B29342F4DC002507E03B4B585D05F1700100F0DDFE0135EDB2344B1B78DBB29D42F2D9B2
:40068000324801F031FA51E0314801F02DFA4DE0122C23D8E21ED2B22F490A70022208E0511E10A8104410F8405C2B4845540132D2B29342F4DC002507E0274B585D05F14A
:4006C0007F0100F0B3FE0135EDB21F4B1B78DBB29D42F2D91D4801F007FA27E01C4801F003FA23E09DF80250592D1CD89DF80300232818D89DF80410312914D89DF8052040
:40070000122A10D8154B1D705870154B19705A709DF806209A7000F02FF800F059F80B4801F0E2F902E00A4801F0DEF9402C07D101F04AFA0028FBD00021084601F0ACF984
:4007400011B030BD6C82FF1F0082FF1FD02F0000D42F00005482FF1FFC82FF1FFC81FF1F1083FF1F08B5FFF78DFC012000F0DAFEFFF778FDF9E700BF10B582B001238DF872
:400780000430124B1A788DF805205B788DF8063000F0D4FC0021682000F048FC58B1002011E002AB234413F8040C00F09BFC48B90134E4B200E00024022CF2D900F076FC46
:4007C000012000E0002002B010BD00BFFC81FF1F10B582B004238DF80430134B1A788DF805205A788DF806209B788DF8073000F0A5FC0021682000F019FC58B1002011E0E9
:4008000002AB234413F8040C00F06CFC48B90134E4B200E00024032CF2D900F047FC012000E0002002B010BD1083FF1FFEE700BFF0B40022174611E050F82760F3B226F0A1
:40084000FF0608E001EB420511F812406D78A5550132013BDBB2002BF4D10137282FEBD9F0BC7047064B1B78DBB203F00701054A11701B09013213704422034B1A70704771
:40088000CF0100496E5800407658004038B54722304B1A80182330490B7002310A802F4A137040F25A3204310A8002310B7002310A802B4A137040F29A51023211800232C2
:4008C000137040F2B66102321180023213700622244B1A705222A3F580731A70224B1B78DBB2224A137040F62132214B1A8041F25122023B1A80002419250CE01D4B1B7835
:4009000003F0010343EA440404F003044FF4F07002F0FAF8013D0DB1032CEFD115B90320FFF784FF144A4FF48073138007231370002312490B7048200231087013700532DA
:40094000137002220E4B1A700E4A137843F03F03137038BD8040004082400040864000408E400040004300400F010049A146004022420040254200400440004006400040AF
:4009800001400040A243004008B50A46002102F0D4FA08BD08B502F0C5FA08BD38B572B6394C61232370FFF771FF01232370374A137843F00403137000240CE0344D630020
:4009C00019194A0011462A44084691882858FFF7DBFF0134E4B2082CF0D900240CE02C48A20011194B000344B3F84020D96B986BFFF7D0FF0134E4B2022CF0D925494FF0CF
:400A00009040FFF715FF244A137843F0020313701032137843F002031370204C237843F040032370A2F58632513A137843F01003137008221A491B48FFF7ACFF0A221A4942
:400A40001A48FFF7A7FF0A2219491A48FFF7A2FF0A2219491948FFF79DFF0A2218491948FFF798FF0A2218491848FFF793FF184A137843F008031370FFF7F4FE0E22214653
:400A80001448FFF787FF38BD00480040E84600400C300000A400004803500140A0430040E80F004802510040F00F0048C0510040FC0F0048F0510040081000481051004055
:400AC0001410004820510040201000483051004022430040B043004008B502F0F7F903680C2B00D1FEE7FEE708B5104E104D16E029686B68AC68002204E051F8040B43F86D
:400B0000040B0432A242F8D1E868002203E0002143F8041B04328242F9D11035013E002EE6D102F0D9F9FFF71DFEFEE7010000003832000008B5104A104B1A60104A1368E0
:400B400043F40073136000230AE0032B03D80D4A52F8231000E00C490C4A42F8231001332F2BF2D90A4B1A780A4B1A70074A0A4B1A60FFF713FF08BD0004FA050CED00E08E
:400B800014ED00E000000000D90A00000080FF1FBC760040C080FF1F08ED00E001BE704710B5044605E0084B186801F0ADFFA4F50044B4F5004FF6D8034B586800FB04F0B4
:400BC00001F0A2FF10BD00BFCC80FF1F08B5034B1B7A00FB03F001F097FF08BDCC80FF1F70B504460E46074B1D681F2802D90020FFF7D4FF04F01F04103455F8240045F87B
:400C0000246070BD08ED00E038B504460D46072902D90020FFF7C2FF1F2C02D90020FFF7BDFF04F01F0000F1604000F564406D01EDB2057038BD00BF134B1B78DBB2036076
:400C4000124A127843EA02230360114A127843EA024303600F4A127843EA026303600E4B1B78DBB243600D4A127843EA022343600B4A127843EA024343600A4A127843EA56
:400C800002634360704700BF0301004904010049EC460040020100490101004900010049050100490601004910B50222114B1A7081220E3B1A70082202331A702A2211336B
:400CC0001A70002401331C704FF400420A4B1A6007210F20FFF798FF08490F20FFF780FF1022074B1A70074B1C70074B1C70074B1C7010BDD649004080E100E05D0D0000DA
:400D00001B84FF1F1E84FF1F2084FF1F1C84FF1F08B501F001FF064A137843F0040313701032137843F00403137001F0F9FE08BDA543004008B5074B1B7823B9FFF7B4FFEA
:400D40000122044B1A70FFF7E3FF4FF40042024B1A6008BD7C81FF1F00E100E038B5A54B1C78A54B1B7813F0400F00F03A81E4B214F0010F00F01D819F4B1B78453B052B5C
:400D800000F21481DFE813F006008200120112010600DF0004F0DF0504F00A04082C42D1954B1B78DBB2452B35D1944B1B7813F0FF0F10D0924B1B681B78DBB2914A137077
:400DC00004228C4B1A7001228F4B1A7046228A4B1A702C46EDE08D4B1B7813F0020F0DD08B4A137843F00A0313706022824B1A704FF40042874B1A602C46DAE0864A13782F
:400E000043F0100313701022844B1A700422023B1A702C46CDE00022764B1A704A22764B1A702C46C5E00A2C2BD1794A137843F0A0031370754B1B7813F0020F14D06E4B3A
:400E40001B7813F0080F01D0092300E00A23704A11780B4313706022674B1A704FF400426C4B1A602C46A4E06B4A137843F0100313701022694B1A700422023B1A702C4665
:400E800097E00020FFF78AFE2C4692E014F0020F36D15D4B1A78D2B2584B1B78DBB29A4210D2594A1378DBB255490968CB5CDBB254490B7004214F4B197013780133DBB2B4
:400EC000137076E0514B1B7813F0020F0CD0504A137843F00A0313706022474B1A704FF400424C4B1A6064E04B4A137843F0100313701022494B1A700422023B1A7058E03C
:400F0000424B1B7813F0020F0CD0414A137843F09A0313706022384B1A704FF400423D4B1A6046E03C4A137843F01003137010223A4B1A700422023B1A70354A137843F0B7
:400F40009003137035E0364A1378DBB2354908682C490978C9B2C15413780133DBB213701278D2B2304B1B78DBB29A4203D21022204B1A701DE0254B1B7813F0020F0CD0FA
:400F8000234A137843F00903137060221A4B1A704FF400421F4B1A600BE01F4A137843F0100313700022134B1A7002E00020FFF7F5FD14F0200F1CD00F4B1B7813F0080FDB
:400FC00001D0012300E00223114A11780B431370114A137803F0EF0313701022064B1A7038BD054B1B7813F0100F02D11022024B1A7038BDD74900401B84FF1F1F84FF1F3E
:401000002484FF1FD84900401C84FF1F1D84FF1F1E84FF1F80E100E0D6490040D94900402084FF1F2884FF1F2C84FF1F1A4B1B78DBB2102B29D1194B1B7813F0080F26D12E
:401040004FF40042164B1A604000C0B229B140F001004922104B1A7002E045220E4B1A70104B1870012201331A700F4B1B7813F0010FFAD00C4B1B7803F00A030A2B08D151
:401080001022054B1A700320704702207047012070470020704700BF1B84FF1FD949004080E100E0D8490040D74900400A4B1B7813F0040F0ED01023074A13700421023A9E
:4010C0001170064A1370064B1B7813F0210FFAD00020704702207047D94900401B84FF1FD7490040114B1B7813F0040F1BD0104B18700422013B1A7046220E4B1A700E4B29
:401100001B7813F0010FFAD00B4B1B7813F0020F04D16022074B1A70002070476022054B1A70032070470220704700BFD9490040D84900401B84FF1FD74900404FF4004304
:40114000044A1360044A107800211170034A1360704700BF80E100E01E84FF1F00E100E008B50D490120FFF73BFD07210120FFF74BFD0023094A13707221094A11702021B4
:40118000A2F5807211700621633A11704721103211704E32137008BD091200007E81FF1F8965004010B501F0B7FC04460C4A137843F020031370A2F58072137843F01003C0
:4011C00013700222074B1A60074A137843F01003137000F005F9204601F0A2FC10BD00BF9965004000E100E09464004008B5054B5B7823B9FFF7B4FF0122024B5A70FFF79C
:40120000D1FF08BD7E81FF1F1E4B1B78DBB213F01E0F05D01C4803F01E0201780A43027003F0200303F0FF02002B27D0174B1978C9B2174B1B889BB21648C154164B1B786C
:4012400013F0FF0F02D00121144B197010490B889BB201339BB20B800B889BB2FF2B02D900210B4B19800A4B198889B20C4B1B889BB2994202D10121074B1970002AC3D166
:40128000704700BF696400407E81FF1F496400408281FF1F3084FF1F8481FF1F8581FF1F8081FF1F08B50D490220FFF799FC07210220FFF7A9FC0023094A13707221094AC4
:4012C00011702021033A11700621623A117047211032117002F5A872137008BD491300008781FF1F8D64004010B501F015FC04460B4A137843F020031370033A137843F02E
:40130000100313700422074B1A60074A137843F01003137000F072F8204601F001FC10BD9D64004000E100E09865004008B5054B5B7823B9FFF7B6FF0122024B5A70FFF72F
:40134000D3FF08BD8781FF1F1D4B1B78DBB213F01E0F05D01B4803F01E0201780A43027003F0200303F0FF0233B3174B1978C9B2164B1B78DBB21648C154164B1B7813F02C
:40138000FF0F02D00121144B197010490B780133DBB20B700B78DBB2FF2B02D100210B4B19700A4B1978C9B20C4B1B78DBB2994202D10121074B1970002AC5D1704700BF65
:4013C0006A6400408781FF1F4A6400408A81FF1F3085FF1F8B81FF1F8C81FF1F8981FF1F054A137843F0020313701032137843F002031370704700BFA2430040054A1378C0
:4014000043F0200313701032137843F020031370704700BFA243004008B501F0DBFB01F0E3FB08BD08B5FFF7F7FF08BD30B583B00C468DF8070001F017FCB4F5006F52D2D6
:401440002509A4EB0514A4B201F0BAFC00284CD101230DF107022146402001F031FC044607282FD1234B1B7813F0020FFAD0214B1B7813F0020F06D01E4B1B789B0805D08F
:401480004FF0FF3403E04FF0FF3400E00024E4B9194A537812782946402001F04DFC072816D1144B1B7813F0020FFAD0114B1B7813F0020F0FD00F4B1B789B0810D04FF08C
:4014C000FF340DE0012809D10AE04FF0FF3407E04FF0FF3404E04FF0FF3401E04FF0FF3401F094FC02E0012400E00424204603B030BD00BF22470040E486FF1F38B50446AE
:4015000001F00AFB054601F099FB04F1804000F500400478E4B201F09FFB284601F000FB204638BD044A137803F0FD03400000F0020018431070704720510040F8B501F0CA
:40154000EBFA0546404A137843F0010313701032137843F00103137001273C4B1F700226943B1E7002F5E2521B32137803F07F0313700020FFF72AFB354C237803F0F903E1
:401580002370344A137803F0DF03137023783B4323703846FFF71AFB2820FFF717FB2E4B1A7802F07F021A701A7802F0BF021A702378334323703046FFF708FB237843F0FA
:4015C000040323700023254A137001321370284601F0A6FA07211720FFF716FB20491720FFF7FEFA07211820FFF70EFB1D491820FFF7F6FA07211520FFF706FB1A491520C4
:40160000FFF7EEFA07210320FFF7FEFA17490320FFF7E6FA07210420FFF7F6FA14490420FFF7DEFA07210520FFF7EEFA11490520FFF7D6FA07210C20FFF7E6FA0E490C209C
:40164000FFF7CEFAF8BD00BFA54300409D6000409443004012600040F85100408460004079210000611F000075210000D520000005210000392100008121000008B5214B6D
:4016800018700023204A1370204A1370204A1370204A1370204A1370204A1370204A1370204B4FF400021A604FF080721A604FF400121A6008221A6010221A6020221A6054
:4016C00011B1012906D00BE0174A137803F0FE0313700AE0144A137843F00103137004E0114A137803F0FE03137003220F4B1A708022203B1A70012001F006FA04220C4BED
:401700001A7008BD4986FF1F4C86FF1F6886FF1F6B86FF1F6086FF1F6A86FF1F6D86FF1F4886FF1F00E100E009600040286000401260004038B504460D46064B1B7823B925
:40174000FFF7FCFE0122034B1A7029462046FFF795FF38BD8E81FF1F00230A4A13700A4A13700A4A13700A4A13700A4A13700A4A13700A4A13700322094B1A708022203BF9
:401780001A7070474C86FF1F6886FF1F6B86FF1F6086FF1F6A86FF1F6D86FF1F4886FF1F28600040014B1878704700BF6B86FF1F064B1B7813F0FF0F05D0044B1878C0B28A
:4017C00000221A7070470020704700BF6886FF1F00EB40008300024A13445878704700BF7086FF1F431EDBB2072B0BD8064B00011A18185C00F00F00537843EA00200238ED
:4018000080B2704700207047FC5F0040431EDBB2072B3CD8F0B4074600EB4004A3001C4C2344DB889BB2C3F500739A4208D900EB400293002344DA8892B2C2F5007292B2B5
:4018400000EB4004A300124C2344DB7843EA1223104D04012E192B55D3B2737039B909E0CE5C3D010C4C665501339BB200E000239A42F5D8420002449300054A1344002225
:401880005A705A79D2B20001044B1A54F0BC70477086FF1FFC5F004078600040FE5F0040431EDBB2072B0BD8420002449300054A134400225A705A79D2B20001024B1A54BF
:4018C000704700BF7086FF1FFE5F004070B5D9B1054614460E46C8B1082819D8FFF782FFA04203D22846FFF77DFF0446002305E02901094A525CF25401339BB2A342F7D37E
:401900002846FFF7CDFF04E0002402E0002400E00024204670BD00BF786000400246002001E0013080B2135C002BFAD1704700BF10B4FF2400230EE0094AD25C02EB4202CA
:401940009100084A11448A7AD2B2824201D11C4602230133DBB2012BEED9204610BC70473886FF1F7086FF1F10B5204C2079FFF7DFFF237813F0800F0ED06378DBB2212BA0
:401980002FD11B4B07221A80C0EBC000194A1044586000F053FB10BD144B5B78DBB2202B02D0222B10D01EE0114A07231380C0EBC00310490B4453600F4A135C43F0010332
:4019C000135400F063FB10BD084B9B780B4A22F81030094A135C43F00203135400F0ECF910BD002010BD002010BD00BF006000405486FF1FDC80FF1F3086FF1F4486FF1FE6
:401A000010B500241F4B1C701F4B1C705C700AE01E4B185DC0B2431EDBB2072B01D8FFF73FFF0134E4B2012CF2D9194B1B7813F0FF0F1AD0154B1B7813F0FF0F17D0154B9E
:401A40001B7813F0FF0F14D0114B1B78DBB2082B11D80E4B1B78DBB2082B0ED80D4B1B78DBB2082B0BD8002010BD012010BD012010BD012010BD012010BD012010BD012072
:401A800010BD00BF8F81FF1F3086FF1F3C86FF1F3486FF1F3886FF1F70B506460D460F4B1B780F4AD45CE4B204EB440293000D4A13441B899BB28B4209D204EB440293005D
:401AC000084A13441D89ADB20020FFF767F82A4631462046FFF79AFE70BD00BF8F81FF1F3486FF1F7086FF1F2DE9F8438046234B1B78234AD65CF6B2FFF710FF054600270C
:401B0000344606EB460293001E4A13441B899BB29D4209D906EB460293001A4A1344B3F808901FFA89F900E0A9464A4608EB07013046FFF76BFEC9EB0505ADB245B906EB4E
:401B4000460293000F4A13441B899BB2994510D14F44BFB204EB440293000A4A13445B7813F0FF0FF6D025B9002211463046FFF74DFE002DC4D1BDE8F88300BF8F81FF1F2C
:401B80003486FF1F7086FF1F00B583B002A901F8010D054B1B78054AD05C0122FFF736FE03B05DF804FB00BF8F81FF1F3486FF1F08B5034B1B78034AD05CFFF709FE08BD4F
:401BC0008F81FF1F3C86FF1F08B5034B1B78034AD05CFFF7FDFD08BD8F81FF1F3486FF1F08B5084B1B78084AD35CDBB203EB43018A0006490A44128992B201461846FFF781
:401C000065FE08BD8F81FF1F3C86FF1F7086FF1FC37803F0030390F9020000280FDA032B06D002F001030B48C15442F001020EE0C2F380030848C15442F0040207E0032B1B
:401C400005D0C2F340030548C15442F002021046704700BF3486FF1F3886FF1F3C86FF1F1D4B19781D4A13889BB20B449BB2138000220FE01A494B681B78DBB219488354A9
:401C80004B6801334B600132D2B20B889BB2013B9BB20B80124B1B889BB20BB1072AE9D90D4B1B78DBB2082B00D05AB10E490B7883F080030B700F210C4B197002210C4B90
:401CC000197004E0022309490B7009490B70094B1A70014B1A7070474886FF1F4A86FF1F5486FF1F00600040DE86FF1F6986FF1F4C86FF1F6C86FF1F0222074B1A708022AA
:401D0000064B1A700F22064B1A700023054A1370054A1370012070474C86FF1FDE86FF1F6986FF1F4886FF1F6C86FF1F08B5FFF797FF08BD10B4194B197801F00F0102399F
:401D4000C9B2174A13889BB20B449BB21380002011E0144A5468144B1B5CDBB223705368013353600130C0B20139C9B213889BB2013B9BB213800B4B1B889BB20BB1002926
:401D8000E7D10A4B19700A4A137883F0800313700B22084B1A7010BC704700BF296000404A86FF1F5486FF1F006000406C86FF1FDE86FF1F6986FF1F0623064A1370064AAF
:401DC00013708022054B1A700022054B1A700120704700BF4C86FF1F6986FF1FDE86FF1F6C86FF1F064B9B6843B1054B9A6810709A6804490988518000229A60704700BF65
:401E00005486FF1F4A86FF1F08B5134B1A78D2B21A701B78DBB213F0800F02D00F4A137008BD0220FFF7DEFF0D4B1B7803F06003202B05D0402B06D043B900F08FFC06E0E8
:401E400001F014F803E000F037FE00E0002010B90322024B1A7008BD286000406986FF1F0060004008B5094B1978094A13889BB20B449BB213800022064B1A700120FFF73E
:401E8000B1FF0322044B1A7008BD00BF4886FF1F4A86FF1F4C86FF1F6986FF1F08B50B4B1B78DBB2042B06D0062B07D0022B0BD1FFF7D8FF08BDFFF73DFF08BD0320FFF72E
:401EC00091FF0322024B1A7008BD00BF4C86FF1F6986FF1F08B50022044B1A700120FFF781FF0322024B1A7008BD00BF4C86FF1F6986FF1F08B50B4B1B7813F0FF0F07D07B
:401F0000084A137843F0800307490B70002313700022064B1A700120FFF764FF0322044B1A7008BD6A86FF1F086000404C86FF1F6986FF1F08B5094B1B78DBB2042B06D07A
:401F4000062B07D0022B07D1FFF7F0FE08BDFFF7C1FF08BDFFF7CEFF08BD00BF4C86FF1F08B5284B1B78DBB213F0100F48D013F0800F0CD003F00F03012B16D1FFF744FFB0
:401F8000214B1B7813F0800F11D1012312E013F0400F03D0FFF7CEFF01230BE013F0200F07D0FFF77BFF012304E0002302E0002300E0002323B3134B1B7813F0800F1FD1AC
:401FC000124B1B78124A12781343124A13701278D2B2934214D10C4B1B78DBB2094A127812F0800F07D1084B1B78DBB2054A1370137803F00F03044A1278D2B29342EAD190
:4020000008BD00BF286000406986FF1FDE86FF1F6C86FF1F296000400022064B1A80064B9B682BB1044A916800230B7092685380704700BF4A86FF1F5486FF1F08B50F4B8A
:402040001B889BB213B9FFF757FE15E002220C4B1A7000220B4B1A70FFF7DEFF0A4AD179937943EA0123054A128892B2934201D2024A1380FFF7F4FD012008BD5486FF1F16
:402080004C86FF1FDE86FF1F0060004008B504220B4B1A7080220B4B1A70FFF7BDFF0A4AD179937943EA0123084A128892B2934201D2064A13800B22054B1A70012008BD74
:4020C0004C86FF1FDE86FF1F006000405486FF1F6986FF1F0122094B1A700F3B9B7C084B1B7B03F00303934204D0054AD37B83F08003D3730122024B5A7370470B60004064
:402100007086FF1F02220A4B1A700F3B93F82230084B1B7E03F00303012B04D0054AD37E83F08003D3760122024B5A76704700BF0B6000407086FF1F04220C4B1A700F3BD7
:4021400093F832300A4B93F8243003F00303012B06D0074A92F8273083F0800382F827300122034B83F82520704700BF0B6000407086FF1F704700BF08B5FFF7EDFA08BD0F
:4021800008B500F0B7FC08BD70B588B0054603AC174E0FCE0FC43368237035B322232B7003236B7001A8FEF747FD002402231AE008AA224412F81C2C08A901EB121111F83F
:4021C000141CE954581C00212954981C02F00F0208AE324412F8142C2A54DA1CA9540134E4B20433DBB2212BE2D908B070BD00BF6430000010B401233EE019461A010C2444
:402200002148845403EB4300820020480244527912F0FF0F13D003EB430082001B480244127912F0800F04D01801194A024494700AE01801164A02440820907004E018015E
:40224000134A0244802090704800084482000F480244D488E4B208010B4901448C71D088C0F30720C871D088C0B20871D288C2F307224A710133DBB2082BBED9FF22054B3A
:402280001A7010BC704700BF706000407086FF1FFC5F00400A600040074B1A78074B03EBC2035B681A7C824204D9C0001030184440687047002070474986FF1FB4300000A3
:4022C000F8B5404B1B7813F0FF0F79D03D4B18780138C0B2FFF7E0FF047AC2683A4B1878C0B200236AE01178884264D13749095CC9B25578A9425ED1917801F07F01D678EE
:4023000006F00306DFF8C8E04D000D44AF000EEB07054FF0000C85F803C092F802C085F804C092F803C00EF807C097882F8192F90250002D0DDA012E01D1072700E00D2798
:402340004E000E44B500224E35446F7101266E700CE0012E01D1052700E009274E000E44B5001B4E35446F7100266E70DFF868E00F010EEB07060125B57001FA05F5294414
:402380008D00134929440D89C5F307250EF807500D89EDB27570CE88F6B20E4D3D44AE71CE88C6F30726EE71CE88F6B22E71C988C1F30721697108320133DBB2A34292D359
:4023C000F8BD00BF6B86FF1F6086FF1FDC86FF1F7086FF1F70600040FC5F0040034B1A78034B03EBC2035868704700BF4986FF1FB430000008B5084B18780138C0B2FFF7EE
:402400004BFF30B142681279023200EBC203586808BD002008BD00BF6B86FF1F2DE9F047002310E0704D5900CA189600AC190022AA55A270E2702281A272627034462C4475
:4024400062710133DBB2082BECD940B90AE000226649CA546649CA540133DBB200E00023012BF4D9634B1B7813F0FF0F00F0B980604B18780138C0B2FFF70EFF804643689F
:40248000DB7913F0400F05D05B4A137843F00103137004E0584A137803F0FE03137098F808704FF0000A01266FE0D8F80C50002467E0AB7803F07F039E425FD1314606EBC1
:4024C00046008300484803441B899BB2A888834206D206EB460E4FEA8E03434A134418812B784248C35CDBB26878834246D195F802C0DFF8F4E04B000B4498000EEB000335
:4025000083F804C0EB780EF80030EB7803F0030395F90200002813DA012B02D14FF0070901E04FF00D09DFF8C0E04B0003EB010C4FEA8C00704480F805900121417012E036
:40254000012B02D14FF0050901E04FF00909DFF898E04B0003EB010C4FEA8C00704480F8059000214170AB790A2B01D0022B05D1524631462846FFF74BFB824608350134D0
:40258000E4B2BC4295D30136F6B2082E8DD9D8F80C0000220CE0837803F07F0310F8084B03EB43039900104B19448C720132D2B2BA42F0D3FFF71EFF104B186000210123CB
:4025C0000BE0094D5A00D01884002C44E180228992B2114489B20133DBB2082BF1D9FFF709FEBDE8F08700BF7086FF1FDC86FF1F5086FF1F6B86FF1F6D86FF1F6486FF1F3E
:4026000008B5154B1B7903F07F035A1ED2B2072A20D8590019448A0010490A44917841F0010191700021D170517841F002015170127912F0800F05D01B01094A1A448D239D
:40264000937004E01B01064A1A4489239370FFF7B3FB08BD002008BD006000407086FF1FFC5F0040274B1B7903F07F035A1ED2B2072A44D810B5590019448A0022490A44DB
:40268000917801F0FE0191700021D1701F4C1801215C01F07F012154517801F0FD015170127912F0800F13D003EB43018A0016490A445278D2B2012A04D1224602440C23CB
:4026C000937019E01B01114A1A440D23937013E003EB43018A000C490A445278D2B2012A05D11B01094A1A440823937004E01B01064A1A4409239370FFF75EFB10BD002021
:40270000704700BF006000407086FF1FFC5F004010B50E4B1C79E4B20D4B18780138C0B2FFF7BAFD43681B799C4201D9022C0AD8084A135DDBB208490B55044B9B78DBB255
:402740001355012010BD002010BD00BF006000406B86FF1FDC86FF1F5086FF1F10B5964B1B78DBB20021954A118013F0800F00F0B380914A5278D2B20A2A00F27981DFE818
:4027800012F06F00770177017701770177010B00770198007701A000874BDB78DBB2012B09D1FFF71BFE4268844B5A6012221A80FFF744FC10BD804BDB78DBB2022B13D196
:4027C0007D4B9878FFF768FD002800F0538142687A4B5A605A68D1785A68927842EA01221A80FFF72BFC10BD734BDB78DBB2032B05D032E00A7811440133DBB201E0002398
:402800006F496D4A9278D2B2934203D20A7812F0FF0FEFD1684B9B78DBB2EE2B00D16949654B9B7813F0FF0F0BD0634B9B78DBB2654A127C934204D1644C2046FFF7A4FC20
:4028400021460B7813F0FF0F00F016810B785B4A13805160FFF7F2FB10BD00F007FB10BD13F0030317D0022B40F0088153490B80514B1B7903F07F0303EB43039A00544BEC
:402880001A449278D2B2534B1A7000225A704B60FFF7D4FB10BD494902230B804E4B1A78D2B24C4B1A7000225A704B60FFF7C6FB10BD424B01221A80484A5A60FFF7BEFB69
:4028C00010BD3E4A012313803B4B1B7944490B445360FFF7B3FB10BD374A5278013A0A2A00F2CE80DFE812F04C00CC009700CC000B00CC00CC00CC001300CC0030002E4B7D
:402900009B78DBB2374A1370FFF756FA10BD2A4B9B7803F0FF041BB1601EC0B2FFF7BCFC04B110B9002C40F0AD802C4B1B78DBB29C4206D0294B1C7001202B4B1870FFF791
:402940006DFDFFF739FA10BDFFF7E2FE002800F09B80194A1379DBB21279D2B223490A70234AD25CD2B21E49CB5CDBB29A4204D001221D4B1A70FFF7A3FCFFF71DFA10BD0F
:4029800003F00303012B35D04BB1022B7ED10A4B9B7813F0FF0F7BD1FFF764FE10BD064B9B78DBB2012B75D10B4A137803F0FD031370FFF701FA10BD006000405486FF1F7C
:4029C0001C310000A030000000320000E886FF1F7086FF1F9081FF1F6D86FF1F6B86FF1FDC86FF1F6A86FF1F6886FF1F6086FF1F5086FF1F2D4B1B79DBB2012B4CD82B4BA8
:402A000098781B79DBB22A49CA5C22EA0002CA54FFF7D2F910BD03F00303012B17D04BB1022B3BD1214B9B7813F0FF0F38D1FFF7E7FD10BD1D4B9B78DBB2012B32D11D4AF3
:402A4000137843F002031370FFF7B6F910BD174B1B79DBB2012B27D8144B98781B79DBB21349CA5C22EA0002CA54FFF7A5F910BD002010BD002010BD002010BD002010BD9D
:402A8000002010BD002010BD002010BD002010BD002010BD002010BD002010BD002010BD002010BD002010BD002010BD00600040E086FF1F6D86FF1F08B50B4B1B7813F009
:402AC000800F0CD0084B5B78DBB2012B09D1074B074A5A6012781A80FFF7B0FA08BD002008BD002008BD00BF006000405486FF1F78300000024B1878C0F38010704700BF6D
:402B00008F450040000000000230800803D000BF01380046FCD17047EFF3108072B6704780F31088704700BF10B500F09DF800F047F910BB012000F025F9072818D10221B1
:402B40000F4800F0A3F802280AD102E00120FEF73DF80C4B1B7813F0020FF7D0002409E0084B1B7813F0020FE9D04FF0FF3401E04FF0FF3400F04AF900E00424204610BD89
:402B8000E486FF1F2247004010B500F06DF800F017F9D0B900F056F90446072812D102E00120FEF713F80A4B1B7813F0020FF7D0074B1B7813F0020F04D0054B1B789B088D
:402BC00000D1002400F022F900E00424204610BD2247004008B5FFF7D7FF034610B9FFF7A3FF0346184608BD08B5FFF795FF0F4A137843F0080313701032137843F008035B
:402C00001370C8220A4B1A700A4A137843F0100313701032137843F010031370064B1B7813F0200FFAD0FFF77BFF08BDA043004001470040AC43004000470040054A1378BA
:402C400043F001031370034B1B7813F0020FFAD0704700BF02470040024A137803F0FE03137070470247004008B5FFF755FF064A137843F0080313701032137843F00803A0
:402C80001370FFF74DFF08BDA043004070B506460D4600240CE00120FDF798FF064B1B7813F0010FF7D0054B1B7833550134E4B2AC42F3D3204670BD22470040204700405C
:402CC00030B43E2801D81F2B03D93F2827D90F2B27D8174C247814F0020F24D0154CB6252570D4252570012525700234247814F0020F1AD10F4C2070C1F300202070C9B22D
:402D00002170591EC9B22170002104E0545C094804700131C9B29942F8D3072006E0012004E0012002E0042000E0092030BC7047224700402047004030B4104C247814F09D
:402D4000020F15D00E4CB6252570D8252570052525700234247814F0020F0BD1084C2070080A2070C9B2217022702370072002E0042000E0092030BC704700BF2247004087
:402D8000204700400C4B1B7813F0020F0FD00B4BB6221A70E1221A700E221A7002331B7813F0020F05D1054B187007207047042070470920704700BF22470040204700405E
:402DC00010B5FFF7A9FE0F4B1B78A3B901220D4B1A700D4B1B6813F0010F0ED00A4A136823F00103136000BF00BF00BF0122054B5A60002402E0042400E00024FFF790FEDE
:402E0000204610BD9481FF1F0400084008B5FFF783FE0A4B00221A705B68012B0AD1084A136843F00103136000BF00BF00BF0022024B5A60FFF774FE08BD00BF9481FF1FE5
:402E400004000840074B1B7813F0020F08D0064BB6221A70E0221A700D221A700720704704207047224700402047004008B5144B1B7803F00303012B02D0022B04D00FE09E
:402E80000F4B1B79DBB20CE00D4B1B7903F07F0303EB43039A000B4B1A44937ADBB200E00023022B07D8084A1268D35C022B04D1FEF75AFD08BD002008BD002008BD00BF88
:402EC000006000407086FF1F6486FF1F014B1868704700BF5881FF1F0E4B70B51E460E4C0025E41AA410A54204D056F8253098470135F8E700F08EF9084B094C1E46E41AF7
:402F0000A4100025A54204D056F8253098470135F8E770BD2032000020320000203200002832000010B5431E0A44914204D011F8014B03F8014FF8E710BD0346024493421E
:402F400002D003F8011BFAE770470000000000000A0A4E6F2068617920636F6D756E69636163696F6E20636F6E206573746120706F736963696F6E2E0A0A0A0A0A0A00006A
:402F80000A0A506F736963696F6E204F4B2079206E6F206861792072656369626F73207061726120696D7072696D69722E0A0A0A0A0A0A000A0A506F736963696F6E206F62
:402FC0006375706164612E0A0A0A0A0A0A0000004F4B00004552524F5200000031000000312E3500320000004E6F6E65000000004F6464004576656E000000004D61726B1E
:40300000000000005370616365000000C84900401900405100403000000001408008000901400007001401408006001B0140000100400140000A004C01400002105001402C
:403040001000000080080140D80E00488000801A0140580F0048800000500140D80F0048100000003031323334353637383941424344454600000000280000000001040020
:40308000010000000000000000014359555342000000303030303100000000000000000012034D005300460054003100300030000100000001000000BC30000001000000C8
:4030C00000320000000000000000000001000000D430000001000000BC31000003000000003100000000000000000000000000000000000000000000FC300000020A00003F
:4031000000008103080002000100820240000A000100030240000A0002030000040309042C0343007900700072006500730073002000530065006D00690063006F006E00C3
:4031400064007500630074006F007200100355005300420055004100520054003803430044004300200043006F006D006D0075006E00690063006100740069006F006E000A
:40318000200049006E007400650072006600610063006500260343004400430020004400610074006100200049006E007400650072006600610063006500000009024300D2
:4031C000020101C032090400000102020103052400100104240202052406000105240100010705810308000A09040100020A00000407058202400000070503024000000021
:403200001201000202000008B40432F20100010280014300F8B500BFF8BC08BC9E4670474D000000350B0000F8B500BFF8BC08BC9E4670472900000048320000C880FF1F37
:4032400098000000B0050000000000000000E880D0010100420000008014EF0300C2010000000800C201000000080000A120000000000200000000000000000000000000A6
:4032800000000000000000000000000000000000000000000000000012320000000000000000000000000000000000000000000000000000000000000000000000000000CA
:4032C000000000000000000000000000000000000000000000000000F880FF1F00000000000000000000000000000000000000000000000000000000000000000000000038
:40330000000000000000000000000000000000000000000000000000000000000000000000000000000000000000000000000000000000000000000000000000000000008D
:40334000000000000000000000000000000000000000000000000000000000000000000000000000000000000000000000000000000000000000000000000000000000004D
:40338000000000000000000000000000000000000000000000000000000000000000000000000000000000000000000000000000000000000000000000000000000000000D
:4033C00000000000000000000000000000000000000000000000000000000000000000000000000000000000000000000000000000000000000000000000000000000000CD
:020000040003F7
:0200000480007A
:40000000014500400952004008640040076500405000014035010140600201404B03014062040140560501406A06014047070140250801404E090140650A0140500B014038
:40004000520C01403B0D0140030F0140411401404D150140601601404F1701404E1801404E190140171A0140441B01400A400140054101400E420140074301400344014057
:400080000245014002460140074701400F4801401C490140114C0140064D014005500140035101407E0208400940143018121C60600A610878017C408072810F820F833834
:4000C000840F89388A388D7284388572860F8738880F89728A7202B304F30506060C080309020C4F0D040E901042110F144C16A31801190F1CFF1F012008240425092706BB
:40010000280C2D0E2E402F01327C3308340F368C37073AA83B023F0456025712580459045B045C335D305F01850186089413960C980A9A14A403A614AA15AC13AE04B010D1
:40014000B20FB501BA08BE01BF10C003C740C9FFCA07CBFFCC40CD20CEF0CF05D008D401D804D904DA04DB04DC02DD23DF01E040E1A8E240E3200180028003280504080210
:400180000A220B040D080E0410A0120213201428154819981A201BB01D081E40214022052340270829802B1032D138AA39013F0847044F0256025A085C205D015E405F087B
:4001C0006802691470F473208C018F04C02FC26FC4EFCA0ACC0DCE4ED040D6F2E208E610032B0554063007210F401405151F161817201830191F1A0D1B601E2021182321EA
:4002000028022A0C2C052E3832033378343C35063701380839203A203B083F505401580459045B045C325D305F01845F850187088D1390149229930394019606980A99035B
:400240009A119B049F13A713A85FA913AC40AD02AF08B040B103B207B310B418B50CB620B908BF10C064C105C203C402C7ECC830C9FFCAFFCBFFCC62CDA0CEF0CF41D00CE0
:40028000D418D804D904DA04DB04DC33DD33DF01E640E702E910EA30EB10ED10EE10EF120104050408020A200B040D080E051002111014081540180819801AE01B081C08AD
:4002C0001D041E042110220526482714280229182C8032103381371838083B443C023D883F0241104250430149104B404D804E0253065A025C045E805F1162A081408D047C
:400300009194934095489684970499189A029C0A9D049F04A002A108A381A602A708B508C024C2EEC4C3CA8ECC6DCEDAD007D20CD6F1D80CE60401100780091C0B020F8082
:400340001001114013031720190C1B1121092310251429102B0C2F20311F32013340352037803E043F544065410245EB460C470E481749FF4AFF4BFF4EF04F44500C5401D6
:40038000580459045A045B045C305D135F0166C06A406B02814082048303851C8723881D931C94029521960C970E99219B16A01DA308A420A810AA05B004B203B30FB42032
:4003C000B51AB618B760B888B980BB28BE51C001C704C9FFCA07CBFFCC40CD20CEF0CF05D008D608D804D904DA04DB04DC30DD90DF01E040E1A8E240E320064007040801B7
:400400000B800F20118012031508171219041C041D801E502010210222A024202564270829282A012B022E0231223204352036023708382039803A023B083C023D0841201B
:400440004580480149284A084B01508051045510560C5710580159145A805F40640280188A019180920893089404960197019A229C0A9F08A001A208A302A480A544A6A0EB
:40048000A940AA10AC80AF10B004B104B620C050C228C470CA8FCCE7CECFD014D20CD61FD810E202E60400C10160020E038007080BA30E0810AC116112031396141015611D
:4004C000178E195C1B831E43222C24C126262B1C300F32C0330F3410351A362A37F038083A823BA83E144003454049FF4A074BFF4C404D204EF04F055008560858045904BA
:400500005A045B045C015D915F01604061A862406320800C821183088553870C882089038A038B448C098E10901C910A92029354A010A153A304A414A810AA0CAD20AF45B9
:40054000B130B21FB30FB620B740B902BB08BE40BF40C035C101C50BC6CEC80DC9FFCAFFCBFFCEF0CF44D00CD804D904DA04DC11DD01DF01E6C0EA40EB02009104A105117C
:4005800009020C080D020F0210A01208150A18101B801C011D0A1E08208021052248271629012B012E10310237163820390A3D203E083F0140014104450848214CC050103F
:4005C0005340540157015E205F4062406301670C8201878088109250968097809A2C9D109E409F16A014A110AC14B340C09BC2B8C43ECA29CCE1CEE7D04AD208D630D820B8
:40060000E408E820EA08EE0208030A14101312041A152413260C280A2A142E083010360F3A803B803E014003450449FF4A074BFF4C404D204EF04F055008560858045904A2
:400640005A045B045C155D955F01604061A86240632000200102060808010A240F481302140415401708181519021A041C401F402110220523012680270129822A802B08D9
:400680003029328038963B0140114301450449904F04508052085404560457045A025E40622163026402880489108A8091149280934095409704980599089C829D109E04C8
:4006C0009F08A220A301A481A520A608A780AC04AD80AF42B221C04AC25EC4E8CA0DCC0FCE0FD04BD20CD611D81DE220E408020C040506220B040C0C0F04100A1261160C3D
:400700001701180C1A101B021C0C1F022301240328032E0C300C3102320334303501364037043E103F51404541034201440246C0470E481849FF4AFF4BFF4C624DA04EF0AF
:400740004F41500C54185604580459045A045B045C055D555F016640670269106A306B106D106E106F1287018A09950399039A029C089E13A408A615A816A902AA09AE163E
:40078000B01BB103B607B902BA82BF01C001C540C9FFCA07CBFFCC40CD20CEF0CF05D008D608D804D904DA04DB04DC05DD92DF01E040E1A8E240E320004201080604080209
:4007C00009200A210D800F041114120114041540170819091A061D801F0222A227802B802F0830803110320836043720382039803F08404041404224478048014D015010BB
:4008000051085504570459015C8060046102628064017A027B018304850289019044919492A0950196029A219B209C029D08A204A308A401A52CB010B240B308B501C04DCE
:40084000C2CFC4E7CA21CC6ECE4CD01FD208D611D81DE680E820EEC00218048006650A010C480E8618601A8B2080220224E6261128A030F834073A204023410645E0460C78
:40088000470B481649FF4AFF4BFF4EF04F44500C58045A045C025D025F0166C06A406B02811082B38401851888FF89088CF38D268E0C8F1890429301944F96909701980357
:4008C00099389B069E409F04A008A13CA302A404A80CA93EAC4CAEA3B00FB102B28CB320B501B67CB71CB902BAAABF14D602D712D804D904DB04DC55DD50DF01004201281D
:40090000028005010726080209200A220E08108812011308141015011604184019301A201B401D011E0820042140220629102A212B403108329238683A02450447244A0C7A
:400940004D024E0856445A0869146A80709C7202730882048F029B209D02B720C0FFC24FC47FCA05CC0FCE0FD060D220D602E010EC108D02E248E6100102090214011502C3
:4009800022022602290132013501360237023E443F1054185604580459045B045D205F01817F824084F38530860C880389038D208EB3904F9290944C957896A39707984237
:4009C00099109CFF9F0BA008A101A404A54FA730A80CA902AC01AD70AF0FB08CB103B27CB338B40FB540B704B980BA2ABF10D602D711D804D904DB04DF0104140540074021
:400A000009040E510F0410A016021716180119081C041D041E501F1020022210258A26102A202E422F14300131023308355438223C983E014801494059025E2060016221D0
:400A40006C116E046F0874447510771682108508882089028C8090109201930C960497209A229B409C019E01A104A220A401A588A708A904AF80B240B350B702C0F0C2F41A
:400A8000C4FCCAF4CC72CEF5D621D80DE040E208E820EA0404200512060307C5081009040B380C100E0C1409161019091B461C14240C251F2611281C291F2A023180321FD2
:400AC000331C3503362037603E403F4040424103460C47BE483449FF4AFF4BFF4EF04F44500C5401580459045A045B045F0166C06A406B02800D840D870288088A01930126
:400B000097029F01A402A604B00CB403B501B702B822BB02BE01BF50C065C101C203C404C5E0C70CC812C9FFCAFFCBFFCC62CDA0CEF0CF41D00CD418D804D904DA04DB041D
:400B4000DC05DF01E640E702E910EA30EB10ED10EE10EF12002801010504060407020A030E100F021010171419101B021D041F80200422812410261027412E042F0831890C
:400B8000361038083C103F0441084201430145104706480149014B20500454085640570158015E485F1160046280811082208A128C088F0191019250930C974098109A241A
:400BC0009B169E41A014A110A204A408AD01B210C0EEC2A0C464CA60CC2BCE62D0EBD20CD6F1D80CE208E406E601E880EA0EEC40EE04001C01140261041805100A430D0C0D
:400C00000F1111401204145C15101622170C18081B031C101F20207F23202867291C2A182B022C042D092E802F1030803120321F331F34583540362038803A083F11403265
:400C4000410545E047BC483249FF4AFF4BFF4EF04F44500C5401580459045A045B045C515D555F0166C06A406B02850F890F99029B0C9D01A504A702AD08AF02B50EB7017E
:400C8000D602D712D904DB04DC50DD10DF01041206200C200E611401152017011D101E601F8820022120240425012710280229082C842D40312032403502375839143F4678
:400CC000460447084D024F40560857015A085C645D026420660868106A206B0270687221814186409052913492889344948095409620980799089A049B099C809D109E08CA
:400D00009F02A439A524A788AA01AF48B640C070C2F0C4D0CABACCFCCED6D060D210D6F2E208E402EA02EC40EE04059F099F0D010F2615141749190A1B511D803180336003
:400D4000351837073AA03F0456025711580459045B045C225D205F010440052D07080E050F501414160219801A011B101C021D1D204021602201232027592DA830143120F9
:400D8000324034043501371039943B403C403E063F10450847214C804E014F20574059105C205E80640469146A807206731088018B018C208F409F40A240A480AB10B480EE
:400DC000B504C0F0C2F0C4E0CA70CCEECEFED0E0D230D634D820E040E288E660E820EC4030083120358036023A2086208E02CCF0CE10E21033809D80A408A520CC10000805
:400E00003C805710831084089D80A408A520A780C010CE20D440E240E68081209D80A440A520A780B004E22087108D02E6089710A5029710A50209020B020F108704971004
:400E4000A502C20E5720848086209C409F10A980AB80AC40B040B710D440E210E440EA60EE20031006020C401302148057205D02722076408102864087208E029A209CC012
:400E80009F12AF20B302C090C280C430D440D680DC80DE20E210E630EE100D80118012401708670878107F08864087089308A540AB01AD40C201C40ED801DE0387089B08B1
:400EC000B010B580E804EA08102711011A251C261D0100BF010A03C00A1F51E0006300009F0000E300080000144249009F0C00000104260000FF000080210000000000004E
:400F0000001C00E300F3000C18608010070F608C000000A0000040045304060001000C0E14FFFFFF62A0F0410C00000018000400040404041111000100000000000040026C
:400F4000001030100010101200000000000000000000000000000000BC204300CF103000B0304F0000004F460F3800433008008010000008FF00000000000000054F003020
:400F80000A780005207F000070013C80803E037000020A20000010003506040002E00C0006FFFFFF62A0F0410C0000000000080004040404229200010000000000004002F3
:400FC0000010301000101012000000000000000000000000000000002F010000000000000C000B012601240000060600000000000B0004383B000B00000000004100000101
:4010000001000100C00000004000804F4F00400000000000300030F2C20000000000000012008912720012000000000000000000000000000000000000000000000000000B
:401040000000000000000000000000000000000000000000000000000000000000000000000000000000000000000000000000000000000000000000000000000000000070
:401080000000000000000000000000000000000000000000000000000000000000000000000000000000000000000000000000000000000000000000000000000000000030
:4010C00000000000000000000000000000000000000000000000000000000000000000000000000000000000000000000000000000000000000000000000000000000000F0
:4011000000000000000000000000000000000000000000000000000000000000000000000000000000000000000000000000000000000000000000000000000000000000AF
:0200000490006A
:0400000000004005B7
:0200000490105A
:04000000BC90ACAF55
:0200000490303A
:020000000801F5
:0200000490402A
:400000005555555555555555555555555555555555555555555555555555555555555555555555555555555555555555555555555555555555555555555555555555555580
:400040005555555555555555555555555555555555555555555555555555555555555555555555555555555555555555555555555555555555555555555555555555555540
:400080005555555555555555555555555555555555555555555555555555555555555555555555555555555555555555555555555555555555555555555555555555555500
:4000C00055555555555555555555555555555555555555555555555555555555555555555555555555555555555555555555555555555555555555555555555555555555C0
:0200000490501A
:0C00000000012E16106900012E2D186A58
:00000001FF